{
  "contractName": "main",
  "abi": [
    {
      "inputs": [],
      "payable": true,
      "stateMutability": "payable",
      "type": "constructor"
    },
    {
      "constant": true,
      "inputs": [
        {
          "internalType": "address",
          "name": "",
          "type": "address"
        }
      ],
      "name": "guildMasterIDs",
      "outputs": [
        {
          "internalType": "string",
          "name": "",
          "type": "string"
        }
      ],
      "payable": false,
      "stateMutability": "view",
      "type": "function"
    },
    {
      "constant": true,
      "inputs": [
        {
          "internalType": "string",
          "name": "",
          "type": "string"
        }
      ],
      "name": "guildMasters",
      "outputs": [
        {
          "internalType": "address payable",
          "name": "master",
          "type": "address"
        },
        {
          "internalType": "string",
          "name": "guild_id",
          "type": "string"
        },
        {
          "internalType": "uint256",
          "name": "aadhaar",
          "type": "uint256"
        },
        {
          "internalType": "string",
          "name": "region_id",
          "type": "string"
        },
        {
          "internalType": "string",
          "name": "name",
          "type": "string"
        }
      ],
      "payable": false,
      "stateMutability": "view",
      "type": "function"
    },
    {
      "constant": true,
      "inputs": [
        {
          "internalType": "address",
          "name": "",
          "type": "address"
        }
      ],
      "name": "playerIDs",
      "outputs": [
        {
          "internalType": "string",
          "name": "",
          "type": "string"
        }
      ],
      "payable": false,
      "stateMutability": "view",
      "type": "function"
    },
    {
      "constant": true,
      "inputs": [
        {
          "internalType": "string",
          "name": "",
          "type": "string"
        }
      ],
      "name": "players",
      "outputs": [
        {
          "internalType": "string",
          "name": "player_id",
          "type": "string"
        },
        {
          "internalType": "uint256",
          "name": "aadhaar",
          "type": "uint256"
        },
        {
          "internalType": "address payable",
          "name": "player",
          "type": "address"
        },
        {
          "internalType": "string",
          "name": "team_id",
          "type": "string"
        },
        {
          "internalType": "string",
          "name": "region_id",
          "type": "string"
        },
        {
          "internalType": "uint256",
          "name": "quest_count",
          "type": "uint256"
        },
        {
          "internalType": "uint256",
          "name": "completed_quests_individual",
          "type": "uint256"
        },
        {
          "internalType": "uint256",
          "name": "total_rewards",
          "type": "uint256"
        },
        {
          "internalType": "enum main.Tier",
          "name": "player_tier",
          "type": "uint8"
        },
        {
          "internalType": "string",
          "name": "name",
          "type": "string"
        }
      ],
      "payable": false,
      "stateMutability": "view",
      "type": "function"
    },
    {
      "constant": true,
      "inputs": [
        {
          "internalType": "string",
          "name": "",
          "type": "string"
        },
        {
          "internalType": "uint256",
          "name": "",
          "type": "uint256"
        }
      ],
      "name": "teamMembers",
      "outputs": [
        {
          "internalType": "string",
          "name": "",
          "type": "string"
        }
      ],
      "payable": false,
      "stateMutability": "view",
      "type": "function"
    },
    {
      "constant": true,
      "inputs": [
        {
          "internalType": "string",
          "name": "",
          "type": "string"
        }
      ],
      "name": "teams",
      "outputs": [
        {
          "internalType": "string",
          "name": "team_id",
          "type": "string"
        },
        {
          "internalType": "string",
          "name": "region_id",
          "type": "string"
        },
        {
          "internalType": "string",
          "name": "leader",
          "type": "string"
        },
        {
          "internalType": "uint256",
          "name": "quest_count",
          "type": "uint256"
        },
        {
          "internalType": "uint256",
          "name": "completed_quests_team",
          "type": "uint256"
        },
        {
          "internalType": "uint256",
          "name": "team_rewards",
          "type": "uint256"
        },
        {
          "internalType": "enum main.Tier",
          "name": "team_tier",
          "type": "uint8"
        },
        {
          "internalType": "string",
          "name": "name",
          "type": "string"
        }
      ],
      "payable": false,
      "stateMutability": "view",
      "type": "function"
    },
    {
      "constant": false,
      "inputs": [
        {
          "internalType": "address payable",
          "name": "_address",
          "type": "address"
        },
        {
          "internalType": "string",
          "name": "_id",
          "type": "string"
        },
        {
          "internalType": "uint256",
          "name": "_aadhaar",
          "type": "uint256"
        },
        {
          "internalType": "string",
          "name": "_region",
          "type": "string"
        },
        {
          "internalType": "string",
          "name": "_name",
          "type": "string"
        }
      ],
      "name": "createGuildMaster",
      "outputs": [],
      "payable": false,
      "stateMutability": "nonpayable",
      "type": "function"
    },
    {
      "constant": true,
      "inputs": [
        {
          "internalType": "string",
          "name": "_region",
          "type": "string"
        }
      ],
      "name": "getGuildMaster",
      "outputs": [
        {
          "internalType": "string",
          "name": "",
          "type": "string"
        },
        {
          "internalType": "string",
          "name": "",
          "type": "string"
        },
        {
          "internalType": "address payable",
          "name": "",
          "type": "address"
        }
      ],
      "payable": false,
      "stateMutability": "view",
      "type": "function"
    },
    {
      "constant": false,
      "inputs": [
        {
          "internalType": "string",
          "name": "_id",
          "type": "string"
        }
      ],
      "name": "membership",
      "outputs": [],
      "payable": false,
      "stateMutability": "nonpayable",
      "type": "function"
    },
    {
      "constant": false,
      "inputs": [
        {
          "internalType": "string",
          "name": "_id",
          "type": "string"
        },
        {
          "internalType": "uint256",
          "name": "_aadhaar",
          "type": "uint256"
        },
        {
          "internalType": "string",
          "name": "_name",
          "type": "string"
        }
      ],
      "name": "createPlayer",
      "outputs": [],
      "payable": false,
      "stateMutability": "nonpayable",
      "type": "function"
    },
    {
      "constant": true,
      "inputs": [
        {
          "internalType": "string",
          "name": "_id",
          "type": "string"
        }
      ],
      "name": "getPlayer",
      "outputs": [
        {
          "internalType": "string",
          "name": "",
          "type": "string"
        }
      ],
      "payable": false,
      "stateMutability": "view",
      "type": "function"
    },
    {
      "constant": false,
      "inputs": [
        {
          "internalType": "string",
          "name": "_tid",
          "type": "string"
        },
        {
          "internalType": "string",
          "name": "_name",
          "type": "string"
        }
      ],
      "name": "createTeam",
      "outputs": [],
      "payable": false,
      "stateMutability": "nonpayable",
      "type": "function"
    },
    {
      "constant": true,
      "inputs": [
        {
          "internalType": "string",
          "name": "_id",
          "type": "string"
        }
      ],
      "name": "getTeam",
      "outputs": [
        {
          "internalType": "string",
          "name": "",
          "type": "string"
        },
        {
          "internalType": "string",
          "name": "",
          "type": "string"
        },
        {
          "internalType": "string[]",
          "name": "",
          "type": "string[]"
        }
      ],
      "payable": false,
      "stateMutability": "view",
      "type": "function"
    },
    {
      "constant": false,
      "inputs": [
        {
          "internalType": "string",
          "name": "_id",
          "type": "string"
        }
      ],
      "name": "addMember",
      "outputs": [],
      "payable": false,
      "stateMutability": "nonpayable",
      "type": "function"
    },
    {
      "constant": false,
      "inputs": [
        {
          "internalType": "string",
          "name": "_id",
          "type": "string"
        }
      ],
      "name": "removeMember",
      "outputs": [
        {
          "internalType": "bool",
          "name": "",
          "type": "bool"
        }
      ],
      "payable": false,
      "stateMutability": "nonpayable",
      "type": "function"
    },
    {
      "constant": false,
      "inputs": [],
      "name": "dissolveTeam",
      "outputs": [],
      "payable": false,
      "stateMutability": "nonpayable",
      "type": "function"
    },
    {
      "constant": false,
      "inputs": [
        {
          "internalType": "string",
          "name": "_region",
          "type": "string"
        },
        {
          "internalType": "string",
          "name": "_id",
          "type": "string"
        },
        {
          "internalType": "enum main.Tier",
          "name": "_tier",
          "type": "uint8"
        },
        {
          "internalType": "bool",
          "name": "_isTeam",
          "type": "bool"
        }
      ],
      "name": "changeTier",
      "outputs": [],
      "payable": false,
      "stateMutability": "nonpayable",
      "type": "function"
    },
    {
      "constant": false,
      "inputs": [
        {
          "internalType": "string",
          "name": "_region",
          "type": "string"
        },
        {
          "internalType": "string",
          "name": "_id",
          "type": "string"
        },
        {
          "internalType": "uint256",
          "name": "_reward",
          "type": "uint256"
        },
        {
          "internalType": "bool",
          "name": "_isTeam",
          "type": "bool"
        },
        {
          "internalType": "bool",
          "name": "_ishero",
          "type": "bool"
        }
      ],
      "name": "updateStats",
      "outputs": [],
      "payable": false,
      "stateMutability": "nonpayable",
      "type": "function"
    }
  ],
  "bytecode": "0x6080604052336000806101000a81548173ffffffffffffffffffffffffffffffffffffffff021916908373ffffffffffffffffffffffffffffffffffffffff1602179055506156ec806100536000396000f3fe608060405234801561001057600080fd5b50600436106101165760003560e01c806350c45e26116100a2578063c09da04b11610071578063c09da04b14610329578063c3dba91a1461035b578063c4a031b614610377578063ed88068214610381578063f55365a1146103b157610116565b806350c45e2614610286578063918f9687146102b8578063a1925d02146102d4578063a4da44471461030d57610116565b80630df559f7116100e95780630df559f7146101d257806314b7a15d146101ee5780631f11b24f1461021e578063367db63b1461024e5780633ac5f03a1461026a57610116565b806301a682c11461011b5780630299ab22146101375780630a8d73c11461016b5780630c173c021461019b575b600080fd5b610135600480360361013091908101906144ec565b6103e1565b005b610151600480360361014c919081019061446a565b610cb2565b604051610162959493929190614f7e565b60405180910390f35b61018560048036036101809190810190614711565b610ee6565b6040516101929190615001565b60405180910390f35b6101b560048036036101b0919081019061446a565b610fc2565b6040516101c99897969594939291906150d6565b60405180910390f35b6101ec60048036036101e791908101906145eb565b61128d565b005b61020860048036036102039190810190614382565b61167f565b6040516102159190615001565b60405180910390f35b610238600480360361023391908101906144ab565b61172f565b6040516102459190615023565b60405180910390f35b610268600480360361026391908101906144ab565b6117f2565b005b610284600480360361027f9190810190614692565b611af5565b005b6102a0600480360361029b91908101906144ab565b611e17565b6040516102af9392919061508a565b60405180910390f35b6102d260048036036102cd91908101906144ab565b6120a4565b005b6102ee60048036036102e9919081019061446a565b6129a1565b6040516103049a99989796959493929190615170565b60405180910390f35b610327600480360361032291908101906143ab565b612c98565b005b610343600480360361033e91908101906144ab565b612e88565b60405161035293929190615045565b60405180910390f35b61037560048036036103709190810190614558565b613056565b005b61037f61339f565b005b61039b60048036036103969190810190614382565b613848565b6040516103a89190615001565b60405180910390f35b6103cb60048036036103c691908101906144ab565b6138f8565b6040516103d89190614fe6565b60405180910390f35b6060600460003373ffffffffffffffffffffffffffffffffffffffff1673ffffffffffffffffffffffffffffffffffffffff1681526020019081526020016000208054600181600116156101000203166002900480601f0160208091040260200160405190810160405280929190818152602001828054600181600116156101000203166002900480156104b65780601f1061048b576101008083540402835291602001916104b6565b820191906000526020600020905b81548152906001019060200180831161049957829003601f168201915b5050505050905061058f604051806020016040528060008152506003836040516104e09190614f50565b90815260200160405180910390206004018054600181600116156101000203166002900480601f0160208091040260200160405190810160405280929190818152602001828054600181600116156101000203166002900480156105855780601f1061055a57610100808354040283529160200191610585565b820191906000526020600020905b81548152906001019060200180831161056857829003601f168201915b5050505050613fab565b156105cf576040517f08c379a00000000000000000000000000000000000000000000000000000000081526004016105c690615288565b60405180910390fd5b6106a16005846040516105e29190614f50565b90815260200160405180910390206000018054600181600116156101000203166002900480601f0160208091040260200160405190810160405280929190818152602001828054600181600116156101000203166002900480156106875780601f1061065c57610100808354040283529160200191610687565b820191906000526020600020905b81548152906001019060200180831161066a57829003601f168201915b505050505060405180602001604052806000815250613fab565b6106e0576040517f08c379a00000000000000000000000000000000000000000000000000000000081526004016106d790615348565b60405180910390fd5b60606003826040516106f29190614f50565b90815260200160405180910390206003018054600181600116156101000203166002900480601f0160208091040260200160405190810160405280929190818152602001828054600181600116156101000203166002900480156107975780601f1061076c57610100808354040283529160200191610797565b820191906000526020600020905b81548152906001019060200180831161077a57829003601f168201915b505050505090506107b78160405180602001604052806000815250613fab565b610a985761087e6005826040516107ce9190614f50565b90815260200160405180910390206002018054600181600116156101000203166002900480601f0160208091040260200160405190810160405280929190818152602001828054600181600116156101000203166002900480156108735780601f1061084857610100808354040283529160200191610873565b820191906000526020600020905b81548152906001019060200180831161085657829003601f168201915b505050505083613fab565b15610a8c5760016006826040516108959190614f50565b908152602001604051809103902080549050106109f95760606006826040516108be9190614f50565b90815260200160405180910390206000815481106108d857fe5b906000526020600020018054600181600116156101000203166002900480601f0160208091040260200160405190810160405280929190818152602001828054600181600116156101000203166002900480156109765780601f1061094b57610100808354040283529160200191610976565b820191906000526020600020905b81548152906001019060200180831161095957829003601f168201915b50505050509050610986816138f8565b50806005836040516109989190614f50565b908152602001604051809103902060020190805190602001906109bc929190614004565b50816003826040516109ce9190614f50565b908152602001604051809103902060030190805190602001906109f2929190614004565b5050610a87565b600581604051610a099190614f50565b908152602001604051809103902060008082016000610a289190614084565b600182016000610a389190614084565b600282016000610a489190614084565b6003820160009055600482016000905560058201600090556006820160006101000a81549060ff0219169055600782016000610a849190614084565b50505b610a97565b610a95826138f8565b505b5b604051806101000160405280858152602001600384604051610aba9190614f50565b90815260200160405180910390206004018054600181600116156101000203166002900480601f016020809104026020016040519081016040528092919081815260200182805460018160011615610100020316600290048015610b5f5780601f10610b3457610100808354040283529160200191610b5f565b820191906000526020600020905b815481529060010190602001808311610b4257829003601f168201915b5050505050815260200183815260200160008152602001600081526020016000815260200160006004811115610b9157fe5b815260200184815250600585604051610baa9190614f50565b90815260200160405180910390206000820151816000019080519060200190610bd49291906140cc565b506020820151816001019080519060200190610bf19291906140cc565b506040820151816002019080519060200190610c0e9291906140cc565b50606082015181600301556080820151816004015560a0820151816005015560c08201518160060160006101000a81548160ff02191690836004811115610c5157fe5b021790555060e0820151816007019080519060200190610c729291906140cc565b5090505083600383604051610c879190614f50565b90815260200160405180910390206003019080519060200190610cab929190614004565b5050505050565b6001818051602081018201805184825260208301602085012081835280955050505050506000915090508060000160009054906101000a900473ffffffffffffffffffffffffffffffffffffffff1690806001018054600181600116156101000203166002900480601f016020809104026020016040519081016040528092919081815260200182805460018160011615610100020316600290048015610d9a5780601f10610d6f57610100808354040283529160200191610d9a565b820191906000526020600020905b815481529060010190602001808311610d7d57829003601f168201915b505050505090806002015490806003018054600181600116156101000203166002900480601f016020809104026020016040519081016040528092919081815260200182805460018160011615610100020316600290048015610e3e5780601f10610e1357610100808354040283529160200191610e3e565b820191906000526020600020905b815481529060010190602001808311610e2157829003601f168201915b505050505090806004018054600181600116156101000203166002900480601f016020809104026020016040519081016040528092919081815260200182805460018160011615610100020316600290048015610edc5780601f10610eb157610100808354040283529160200191610edc565b820191906000526020600020905b815481529060010190602001808311610ebf57829003601f168201915b5050505050905085565b6006828051602081018201805184825260208301602085012081835280955050505050508181548110610f1557fe5b90600052602060002001600091509150508054600181600116156101000203166002900480601f016020809104026020016040519081016040528092919081815260200182805460018160011615610100020316600290048015610fba5780601f10610f8f57610100808354040283529160200191610fba565b820191906000526020600020905b815481529060010190602001808311610f9d57829003601f168201915b505050505081565b600581805160208101820180518482526020830160208501208183528095505050505050600091509050806000018054600181600116156101000203166002900480601f0160208091040260200160405190810160405280929190818152602001828054600181600116156101000203166002900480156110845780601f1061105957610100808354040283529160200191611084565b820191906000526020600020905b81548152906001019060200180831161106757829003601f168201915b505050505090806001018054600181600116156101000203166002900480601f0160208091040260200160405190810160405280929190818152602001828054600181600116156101000203166002900480156111225780601f106110f757610100808354040283529160200191611122565b820191906000526020600020905b81548152906001019060200180831161110557829003601f168201915b505050505090806002018054600181600116156101000203166002900480601f0160208091040260200160405190810160405280929190818152602001828054600181600116156101000203166002900480156111c05780601f10611195576101008083540402835291602001916111c0565b820191906000526020600020905b8154815290600101906020018083116111a357829003601f168201915b5050505050908060030154908060040154908060050154908060060160009054906101000a900460ff1690806007018054600181600116156101000203166002900480601f0160208091040260200160405190810160405280929190818152602001828054600181600116156101000203166002900480156112835780601f1061125857610100808354040283529160200191611283565b820191906000526020600020905b81548152906001019060200180831161126657829003601f168201915b5050505050905088565b60018560405161129d9190614f50565b908152602001604051809103902060000160009054906101000a900473ffffffffffffffffffffffffffffffffffffffff1673ffffffffffffffffffffffffffffffffffffffff163373ffffffffffffffffffffffffffffffffffffffff161461133c576040517f08c379a000000000000000000000000000000000000000000000000000000000815260040161133390615428565b60405180910390fd5b81156114df576114056005856040516113559190614f50565b90815260200160405180910390206000018054600181600116156101000203166002900480601f0160208091040260200160405190810160405280929190818152602001828054600181600116156101000203166002900480156113fa5780601f106113cf576101008083540402835291602001916113fa565b820191906000526020600020905b8154815290600101906020018083116113dd57829003601f168201915b505050505085613fab565b611444576040517f08c379a000000000000000000000000000000000000000000000000000000000815260040161143b90615328565b60405180910390fd5b60016005856040516114569190614f50565b90815260200160405180910390206003016000828254019250508190555080156114da57600160058560405161148c9190614f50565b908152602001604051809103902060040160008282540192505081905550826005856040516114bb9190614f50565b9081526020016040518091039020600501600082825401925050819055505b611678565b6115a26003856040516114f29190614f50565b90815260200160405180910390206000018054600181600116156101000203166002900480601f0160208091040260200160405190810160405280929190818152602001828054600181600116156101000203166002900480156115975780601f1061156c57610100808354040283529160200191611597565b820191906000526020600020905b81548152906001019060200180831161157a57829003601f168201915b505050505085613fab565b6115e1576040517f08c379a00000000000000000000000000000000000000000000000000000000081526004016115d890615408565b60405180910390fd5b60016003856040516115f39190614f50565b90815260200160405180910390206005016000828254019250508190555080156116775760016003856040516116299190614f50565b908152602001604051809103902060060160008282540192505081905550826003856040516116589190614f50565b9081526020016040518091039020600701600082825401925050819055505b5b5050505050565b60046020528060005260406000206000915090508054600181600116156101000203166002900480601f0160208091040260200160405190810160405280929190818152602001828054600181600116156101000203166002900480156117275780601f106116fc57610100808354040283529160200191611727565b820191906000526020600020905b81548152906001019060200180831161170a57829003601f168201915b505050505081565b60606003826040516117419190614f50565b90815260200160405180910390206009018054600181600116156101000203166002900480601f0160208091040260200160405190810160405280929190818152602001828054600181600116156101000203166002900480156117e65780601f106117bb576101008083540402835291602001916117e6565b820191906000526020600020905b8154815290600101906020018083116117c957829003601f168201915b50505050509050919050565b6060600260003373ffffffffffffffffffffffffffffffffffffffff1673ffffffffffffffffffffffffffffffffffffffff1681526020019081526020016000208054600181600116156101000203166002900480601f0160208091040260200160405190810160405280929190818152602001828054600181600116156101000203166002900480156118c75780601f1061189c576101008083540402835291602001916118c7565b820191906000526020600020905b8154815290600101906020018083116118aa57829003601f168201915b505050505090506001816040516118de9190614f50565b908152602001604051809103902060000160009054906101000a900473ffffffffffffffffffffffffffffffffffffffff1673ffffffffffffffffffffffffffffffffffffffff163373ffffffffffffffffffffffffffffffffffffffff161461197d576040517f08c379a0000000000000000000000000000000000000000000000000000000008152600401611974906152a8565b60405180910390fd5b611a4f6003836040516119909190614f50565b90815260200160405180910390206000018054600181600116156101000203166002900480601f016020809104026020016040519081016040528092919081815260200182805460018160011615610100020316600290048015611a355780601f10611a0a57610100808354040283529160200191611a35565b820191906000526020600020905b815481529060010190602001808311611a1857829003601f168201915b505050505060405180602001604052806000815250613fab565b15611a8f576040517f08c379a0000000000000000000000000000000000000000000000000000000008152600401611a8690615408565b60405180910390fd5b600181604051611a9f9190614f50565b9081526020016040518091039020600301600383604051611ac09190614f50565b90815260200160405180910390206004019080546001816001161561010002031660029004611af092919061414c565b505050565b611bc7600384604051611b089190614f50565b90815260200160405180910390206000018054600181600116156101000203166002900480601f016020809104026020016040519081016040528092919081815260200182805460018160011615610100020316600290048015611bad5780601f10611b8257610100808354040283529160200191611bad565b820191906000526020600020905b815481529060010190602001808311611b9057829003601f168201915b505050505060405180602001604052806000815250613fab565b611c06576040517f08c379a0000000000000000000000000000000000000000000000000000000008152600401611bfd906153a8565b60405180910390fd5b6040518061014001604052808481526020018381526020013373ffffffffffffffffffffffffffffffffffffffff16815260200160405180602001604052806000815250815260200160405180602001604052806000815250815260200160008152602001600081526020016000815260200160006004811115611c8657fe5b815260200182815250600384604051611c9f9190614f50565b90815260200160405180910390206000820151816000019080519060200190611cc99291906140cc565b506020820151816001015560408201518160020160006101000a81548173ffffffffffffffffffffffffffffffffffffffff021916908373ffffffffffffffffffffffffffffffffffffffff1602179055506060820151816003019080519060200190611d379291906140cc565b506080820151816004019080519060200190611d549291906140cc565b5060a0820151816005015560c0820151816006015560e082015181600701556101008201518160080160006101000a81548160ff02191690836004811115611d9857fe5b0217905550610120820151816009019080519060200190611dba9291906140cc565b5090505082600460003373ffffffffffffffffffffffffffffffffffffffff1673ffffffffffffffffffffffffffffffffffffffff1681526020019081526020016000209080519060200190611e11929190614004565b50505050565b6060806060600584604051611e2c9190614f50565b9081526020016040518091039020600701600585604051611e4d9190614f50565b9081526020016040518091039020600201600686604051611e6e9190614f50565b9081526020016040518091039020828054600181600116156101000203166002900480601f016020809104026020016040519081016040528092919081815260200182805460018160011615610100020316600290048015611f115780601f10611ee657610100808354040283529160200191611f11565b820191906000526020600020905b815481529060010190602001808311611ef457829003601f168201915b50505050509250818054600181600116156101000203166002900480601f016020809104026020016040519081016040528092919081815260200182805460018160011615610100020316600290048015611fad5780601f10611f8257610100808354040283529160200191611fad565b820191906000526020600020905b815481529060010190602001808311611f9057829003601f168201915b5050505050915080805480602002602001604051908101604052809291908181526020016000905b82821015612091578382906000526020600020018054600181600116156101000203166002900480601f01602080910402602001604051908101604052809291908181526020018280546001816001161561010002031660029004801561207d5780601f106120525761010080835404028352916020019161207d565b820191906000526020600020905b81548152906001019060200180831161206057829003601f168201915b505050505081526020019060010190611fd5565b5050505090509250925092509193909250565b6060600460003373ffffffffffffffffffffffffffffffffffffffff1673ffffffffffffffffffffffffffffffffffffffff1681526020019081526020016000208054600181600116156101000203166002900480601f0160208091040260200160405190810160405280929190818152602001828054600181600116156101000203166002900480156121795780601f1061214e57610100808354040283529160200191612179565b820191906000526020600020905b81548152906001019060200180831161215c57829003601f168201915b5050505050905060606003826040516121929190614f50565b90815260200160405180910390206003018054600181600116156101000203166002900480601f0160208091040260200160405190810160405280929190818152602001828054600181600116156101000203166002900480156122375780601f1061220c57610100808354040283529160200191612237565b820191906000526020600020905b81548152906001019060200180831161221a57829003601f168201915b50505050509050612301826005836040516122529190614f50565b90815260200160405180910390206002018054600181600116156101000203166002900480601f0160208091040260200160405190810160405280929190818152602001828054600181600116156101000203166002900480156122f75780601f106122cc576101008083540402835291602001916122f7565b820191906000526020600020905b8154815290600101906020018083116122da57829003601f168201915b5050505050613fab565b612340576040517f08c379a0000000000000000000000000000000000000000000000000000000008152600401612337906153e8565b60405180910390fd5b6124126003846040516123539190614f50565b90815260200160405180910390206000018054600181600116156101000203166002900480601f0160208091040260200160405190810160405280929190818152602001828054600181600116156101000203166002900480156123f85780601f106123cd576101008083540402835291602001916123f8565b820191906000526020600020905b8154815290600101906020018083116123db57829003601f168201915b505050505060405180602001604052806000815250613fab565b15612452576040517f08c379a000000000000000000000000000000000000000000000000000000000815260040161244990615408565b60405180910390fd5b612524604051806020016040528060008152506003856040516124759190614f50565b90815260200160405180910390206004018054600181600116156101000203166002900480601f01602080910402602001604051908101604052809291908181526020018280546001816001161561010002031660029004801561251a5780601f106124ef5761010080835404028352916020019161251a565b820191906000526020600020905b8154815290600101906020018083116124fd57829003601f168201915b5050505050613fab565b15612564576040517f08c379a000000000000000000000000000000000000000000000000000000000815260040161255b906152e8565b60405180910390fd5b61256e8284613fab565b156125ae576040517f08c379a00000000000000000000000000000000000000000000000000000000081526004016125a5906152c8565b60405180910390fd5b61272a6003846040516125c19190614f50565b90815260200160405180910390206003018054600181600116156101000203166002900480601f0160208091040260200160405190810160405280929190818152602001828054600181600116156101000203166002900480156126665780601f1061263b57610100808354040283529160200191612666565b820191906000526020600020905b81548152906001019060200180831161264957829003601f168201915b505050505060038460405161267b9190614f50565b90815260200160405180910390206003018054600181600116156101000203166002900480601f0160208091040260200160405190810160405280929190818152602001828054600181600116156101000203166002900480156127205780601f106126f557610100808354040283529160200191612720565b820191906000526020600020905b81548152906001019060200180831161270357829003601f168201915b5050505050613fab565b1561276a576040517f08c379a000000000000000000000000000000000000000000000000000000000815260040161276190615228565b60405180910390fd5b61283c6040518060200160405280600081525060038560405161278d9190614f50565b90815260200160405180910390206003018054600181600116156101000203166002900480601f0160208091040260200160405190810160405280929190818152602001828054600181600116156101000203166002900480156128325780601f1061280757610100808354040283529160200191612832565b820191906000526020600020905b81548152906001019060200180831161281557829003601f168201915b5050505050613fab565b61287b576040517f08c379a000000000000000000000000000000000000000000000000000000000815260040161287290615308565b60405180910390fd5b600360068260405161288d9190614f50565b908152602001604051809103902080549050106128df576040517f08c379a00000000000000000000000000000000000000000000000000000000081526004016128d690615388565b60405180910390fd5b6006816040516128ef9190614f50565b9081526020016040518091039020839080600181540180825580915050906001820390600052602060002001600090919290919091509080519060200190612938929190614004565b505060038260405161294a9190614f50565b908152602001604051809103902060030160038460405161296b9190614f50565b9081526020016040518091039020600301908054600181600116156101000203166002900461299b92919061414c565b50505050565b600381805160208101820180518482526020830160208501208183528095505050505050600091509050806000018054600181600116156101000203166002900480601f016020809104026020016040519081016040528092919081815260200182805460018160011615610100020316600290048015612a635780601f10612a3857610100808354040283529160200191612a63565b820191906000526020600020905b815481529060010190602001808311612a4657829003601f168201915b5050505050908060010154908060020160009054906101000a900473ffffffffffffffffffffffffffffffffffffffff1690806003018054600181600116156101000203166002900480601f016020809104026020016040519081016040528092919081815260200182805460018160011615610100020316600290048015612b2d5780601f10612b0257610100808354040283529160200191612b2d565b820191906000526020600020905b815481529060010190602001808311612b1057829003601f168201915b505050505090806004018054600181600116156101000203166002900480601f016020809104026020016040519081016040528092919081815260200182805460018160011615610100020316600290048015612bcb5780601f10612ba057610100808354040283529160200191612bcb565b820191906000526020600020905b815481529060010190602001808311612bae57829003601f168201915b5050505050908060050154908060060154908060070154908060080160009054906101000a900460ff1690806009018054600181600116156101000203166002900480601f016020809104026020016040519081016040528092919081815260200182805460018160011615610100020316600290048015612c8e5780601f10612c6357610100808354040283529160200191612c8e565b820191906000526020600020905b815481529060010190602001808311612c7157829003601f168201915b505050505090508a565b6000809054906101000a900473ffffffffffffffffffffffffffffffffffffffff1673ffffffffffffffffffffffffffffffffffffffff163373ffffffffffffffffffffffffffffffffffffffff1614612d27576040517f08c379a0000000000000000000000000000000000000000000000000000000008152600401612d1e90615368565b60405180910390fd5b6040518060a001604052808673ffffffffffffffffffffffffffffffffffffffff16815260200185815260200184815260200183815260200182815250600183604051612d749190614f50565b908152602001604051809103902060008201518160000160006101000a81548173ffffffffffffffffffffffffffffffffffffffff021916908373ffffffffffffffffffffffffffffffffffffffff1602179055506020820151816001019080519060200190612de59291906140cc565b50604082015181600201556060820151816003019080519060200190612e0c9291906140cc565b506080820151816004019080519060200190612e299291906140cc565b5090505081600260008773ffffffffffffffffffffffffffffffffffffffff1673ffffffffffffffffffffffffffffffffffffffff1681526020019081526020016000209080519060200190612e80929190614004565b505050505050565b6060806000600184604051612e9d9190614f50565b9081526020016040518091039020600101600185604051612ebe9190614f50565b9081526020016040518091039020600401600186604051612edf9190614f50565b908152602001604051809103902060000160009054906101000a900473ffffffffffffffffffffffffffffffffffffffff16828054600181600116156101000203166002900480601f016020809104026020016040519081016040528092919081815260200182805460018160011615610100020316600290048015612fa65780601f10612f7b57610100808354040283529160200191612fa6565b820191906000526020600020905b815481529060010190602001808311612f8957829003601f168201915b50505050509250818054600181600116156101000203166002900480601f0160208091040260200160405190810160405280929190818152602001828054600181600116156101000203166002900480156130425780601f1061301757610100808354040283529160200191613042565b820191906000526020600020905b81548152906001019060200180831161302557829003601f168201915b505050505091509250925092509193909250565b6001846040516130669190614f50565b908152602001604051809103902060000160009054906101000a900473ffffffffffffffffffffffffffffffffffffffff1673ffffffffffffffffffffffffffffffffffffffff163373ffffffffffffffffffffffffffffffffffffffff1614613105576040517f08c379a00000000000000000000000000000000000000000000000000000000081526004016130fc90615428565b60405180910390fd5b8015613254576131ce60058460405161311e9190614f50565b90815260200160405180910390206000018054600181600116156101000203166002900480601f0160208091040260200160405190810160405280929190818152602001828054600181600116156101000203166002900480156131c35780601f10613198576101008083540402835291602001916131c3565b820191906000526020600020905b8154815290600101906020018083116131a657829003601f168201915b505050505084613fab565b61320d576040517f08c379a000000000000000000000000000000000000000000000000000000000815260040161320490615328565b60405180910390fd5b8160058460405161321e9190614f50565b908152602001604051809103902060060160006101000a81548160ff0219169083600481111561324a57fe5b0217905550613399565b6133176003846040516132679190614f50565b90815260200160405180910390206000018054600181600116156101000203166002900480601f01602080910402602001604051908101604052809291908181526020018280546001816001161561010002031660029004801561330c5780601f106132e15761010080835404028352916020019161330c565b820191906000526020600020905b8154815290600101906020018083116132ef57829003601f168201915b505050505084613fab565b613356576040517f08c379a000000000000000000000000000000000000000000000000000000000815260040161334d90615408565b60405180910390fd5b816003846040516133679190614f50565b908152602001604051809103902060080160006101000a81548160ff0219169083600481111561339357fe5b02179055505b50505050565b6060600460003373ffffffffffffffffffffffffffffffffffffffff1673ffffffffffffffffffffffffffffffffffffffff1681526020019081526020016000208054600181600116156101000203166002900480601f0160208091040260200160405190810160405280929190818152602001828054600181600116156101000203166002900480156134745780601f1061344957610100808354040283529160200191613474565b820191906000526020600020905b81548152906001019060200180831161345757829003601f168201915b50505050509050606060038260405161348d9190614f50565b90815260200160405180910390206003018054600181600116156101000203166002900480601f0160208091040260200160405190810160405280929190818152602001828054600181600116156101000203166002900480156135325780601f1061350757610100808354040283529160200191613532565b820191906000526020600020905b81548152906001019060200180831161351557829003601f168201915b505050505090506135528160405180602001604052806000815250613fab565b15613592576040517f08c379a000000000000000000000000000000000000000000000000000000000815260040161358990615248565b60405180910390fd5b613655826005836040516135a69190614f50565b90815260200160405180910390206002018054600181600116156101000203166002900480601f01602080910402602001604051908101604052809291908181526020018280546001816001161561010002031660029004801561364b5780601f106136205761010080835404028352916020019161364b565b820191906000526020600020905b81548152906001019060200180831161362e57829003601f168201915b5050505050613fab565b613694576040517f08c379a000000000000000000000000000000000000000000000000000000000815260040161368b906153c8565b60405180910390fd5b60008090505b6006826040516136aa9190614f50565b908152602001604051809103902080549050811015613747576040518060200160405280600081525060036006846040516136e59190614f50565b908152602001604051809103902083815481106136fe57fe5b906000526020600020016040516137159190614f67565b90815260200160405180910390206003019080519060200190613739929190614004565b50808060010191505061369a565b506006816040516137589190614f50565b9081526020016040518091039020600061377291906141d3565b6005816040516137829190614f50565b9081526020016040518091039020600080820160006137a19190614084565b6001820160006137b19190614084565b6002820160006137c19190614084565b6003820160009055600482016000905560058201600090556006820160006101000a81549060ff02191690556007820160006137fd9190614084565b50506040518060200160405280600081525060038360405161381f9190614f50565b90815260200160405180910390206003019080519060200190613843929190614004565b505050565b60026020528060005260406000206000915090508054600181600116156101000203166002900480601f0160208091040260200160405190810160405280929190818152602001828054600181600116156101000203166002900480156138f05780601f106138c5576101008083540402835291602001916138f0565b820191906000526020600020905b8154815290600101906020018083116138d357829003601f168201915b505050505081565b60006060600460003373ffffffffffffffffffffffffffffffffffffffff1673ffffffffffffffffffffffffffffffffffffffff1681526020019081526020016000208054600181600116156101000203166002900480601f0160208091040260200160405190810160405280929190818152602001828054600181600116156101000203166002900480156139cf5780601f106139a4576101008083540402835291602001916139cf565b820191906000526020600020905b8154815290600101906020018083116139b257829003601f168201915b5050505050905060606003826040516139e89190614f50565b90815260200160405180910390206003018054600181600116156101000203166002900480601f016020809104026020016040519081016040528092919081815260200182805460018160011615610100020316600290048015613a8d5780601f10613a6257610100808354040283529160200191613a8d565b820191906000526020600020905b815481529060010190602001808311613a7057829003601f168201915b50505050509050613b66600385604051613aa79190614f50565b90815260200160405180910390206000018054600181600116156101000203166002900480601f016020809104026020016040519081016040528092919081815260200182805460018160011615610100020316600290048015613b4c5780601f10613b2157610100808354040283529160200191613b4c565b820191906000526020600020905b815481529060010190602001808311613b2f57829003601f168201915b505050505060405180602001604052806000815250613fab565b15613ba6576040517f08c379a0000000000000000000000000000000000000000000000000000000008152600401613b9d90615408565b60405180910390fd5b613c6982600583604051613bba9190614f50565b90815260200160405180910390206002018054600181600116156101000203166002900480601f016020809104026020016040519081016040528092919081815260200182805460018160011615610100020316600290048015613c5f5780601f10613c3457610100808354040283529160200191613c5f565b820191906000526020600020905b815481529060010190602001808311613c4257829003601f168201915b5050505050613fab565b80613c7a5750613c798285613fab565b5b613cb9576040517f08c379a0000000000000000000000000000000000000000000000000000000008152600401613cb090615268565b60405180910390fd5b60405180602001604052806000815250600385604051613cd99190614f50565b90815260200160405180910390206003019080519060200190613cfd929190614004565b5060008090505b600682604051613d149190614f50565b908152602001604051809103902080549050811015613f9e57613e02600683604051613d409190614f50565b90815260200160405180910390208281548110613d5957fe5b906000526020600020018054600181600116156101000203166002900480601f016020809104026020016040519081016040528092919081815260200182805460018160011615610100020316600290048015613df75780601f10613dcc57610100808354040283529160200191613df7565b820191906000526020600020905b815481529060010190602001808311613dda57829003601f168201915b505050505086613fab565b15613f9157600682604051613e179190614f50565b90815260200160405180910390208181548110613e3057fe5b906000526020600020016000613e469190614084565b600682604051613e569190614f50565b90815260200160405180910390206001600684604051613e769190614f50565b9081526020016040518091039020805490500381548110613e9357fe5b90600052602060002001600683604051613ead9190614f50565b90815260200160405180910390208281548110613ec657fe5b906000526020600020019080546001816001161561010002031660029004613eef92919061414c565b50600682604051613f009190614f50565b90815260200160405180910390206001600684604051613f209190614f50565b9081526020016040518091039020805490500381548110613f3d57fe5b906000526020600020016000613f539190614084565b600682604051613f639190614f50565b9081526020016040518091039020805480919060019003613f8491906141f4565b5060019350505050613fa6565b8080600101915050613d04565b506000925050505b919050565b600081604051602001613fbe9190614f50565b6040516020818303038152906040528051906020012083604051602001613fe59190614f50565b6040516020818303038152906040528051906020012014905092915050565b828054600181600116156101000203166002900490600052602060002090601f016020900481019282601f1061404557805160ff1916838001178555614073565b82800160010185558215614073579182015b82811115614072578251825591602001919060010190614057565b5b5090506140809190614220565b5090565b50805460018160011615610100020316600290046000825580601f106140aa57506140c9565b601f0160209004906000526020600020908101906140c89190614220565b5b50565b828054600181600116156101000203166002900490600052602060002090601f016020900481019282601f1061410d57805160ff191683800117855561413b565b8280016001018555821561413b579182015b8281111561413a57825182559160200191906001019061411f565b5b5090506141489190614220565b5090565b828054600181600116156101000203166002900490600052602060002090601f016020900481019282601f1061418557805485556141c2565b828001600101855582156141c257600052602060002091601f016020900482015b828111156141c15782548255916001019190600101906141a6565b5b5090506141cf9190614220565b5090565b50805460008255906000526020600020908101906141f19190614245565b50565b81548183558181111561421b5781836000526020600020918201910161421a9190614245565b5b505050565b61424291905b8082111561423e576000816000905550600101614226565b5090565b90565b61426e91905b8082111561426a57600081816142619190614084565b5060010161424b565b5090565b90565b6000813590506142808161563d565b92915050565b60008135905061429581615654565b92915050565b6000813590506142aa8161566b565b92915050565b6000813590506142bf81615682565b92915050565b600082601f8301126142d657600080fd5b81356142e96142e482615475565b615448565b9150808252602083016020830185838301111561430557600080fd5b6143108382846155dd565b50505092915050565b600082601f83011261432a57600080fd5b813561433d614338826154a1565b615448565b9150808252602083016020830185838301111561435957600080fd5b6143648382846155dd565b50505092915050565b60008135905061437c81615692565b92915050565b60006020828403121561439457600080fd5b60006143a284828501614271565b91505092915050565b600080600080600060a086880312156143c357600080fd5b60006143d188828901614286565b955050602086013567ffffffffffffffff8111156143ee57600080fd5b6143fa88828901614319565b945050604061440b8882890161436d565b935050606086013567ffffffffffffffff81111561442857600080fd5b61443488828901614319565b925050608086013567ffffffffffffffff81111561445157600080fd5b61445d88828901614319565b9150509295509295909350565b60006020828403121561447c57600080fd5b600082013567ffffffffffffffff81111561449657600080fd5b6144a2848285016142c5565b91505092915050565b6000602082840312156144bd57600080fd5b600082013567ffffffffffffffff8111156144d757600080fd5b6144e384828501614319565b91505092915050565b600080604083850312156144ff57600080fd5b600083013567ffffffffffffffff81111561451957600080fd5b61452585828601614319565b925050602083013567ffffffffffffffff81111561454257600080fd5b61454e85828601614319565b9150509250929050565b6000806000806080858703121561456e57600080fd5b600085013567ffffffffffffffff81111561458857600080fd5b61459487828801614319565b945050602085013567ffffffffffffffff8111156145b157600080fd5b6145bd87828801614319565b93505060406145ce878288016142b0565b92505060606145df8782880161429b565b91505092959194509250565b600080600080600060a0868803121561460357600080fd5b600086013567ffffffffffffffff81111561461d57600080fd5b61462988828901614319565b955050602086013567ffffffffffffffff81111561464657600080fd5b61465288828901614319565b94505060406146638882890161436d565b93505060606146748882890161429b565b92505060806146858882890161429b565b9150509295509295909350565b6000806000606084860312156146a757600080fd5b600084013567ffffffffffffffff8111156146c157600080fd5b6146cd86828701614319565b93505060206146de8682870161436d565b925050604084013567ffffffffffffffff8111156146fb57600080fd5b61470786828701614319565b9150509250925092565b6000806040838503121561472457600080fd5b600083013567ffffffffffffffff81111561473e57600080fd5b61474a858286016142c5565b925050602061475b8582860161436d565b9150509250929050565b60006147718383614885565b905092915050565b61478281615570565b82525050565b6000614793826154f2565b61479d8185615520565b9350836020820285016147af856154cd565b8060005b858110156147eb57848403895281516147cc8582614765565b94506147d783615513565b925060208a019950506001810190506147b3565b50829750879550505050505092915050565b61480681615582565b82525050565b614815816155cb565b82525050565b600061482682615508565b6148308185615542565b93506148408185602086016155ec565b6148498161561f565b840191505092915050565b600061485f82615508565b6148698185615553565b93506148798185602086016155ec565b80840191505092915050565b6000614890826154fd565b61489a8185615531565b93506148aa8185602086016155ec565b6148b38161561f565b840191505092915050565b60006148c9826154fd565b6148d38185615542565b93506148e38185602086016155ec565b6148ec8161561f565b840191505092915050565b60008154600181166000811461491457600181146149395761497d565b607f60028304166149258187615553565b955060ff198316865280860193505061497d565b600282046149478187615553565b9550614952856154dd565b60005b8281101561497457815481890152600182019150602081019050614955565b82880195505050505b505092915050565b6000614992601f83615542565b91507f506c6179657220697320616c726561647920696e20796f7572207465616d21006000830152602082019050919050565b60006149d2601983615542565b91507f596f7520646f6e7420686176652061207465616d2079657421000000000000006000830152602082019050919050565b6000614a12603783615542565b91507f52656d6f76616c2063616e20626520646f6e6520656974686572206279206c6560008301527f61646572206f722068696d73656c662f68657273656c660000000000000000006020830152604082019050919050565b6000614a78602d83615542565b91507f526567696f6e206d7573742062652061737369676e6564206265666f7265205460008301527f65616d206372656174696f6e21000000000000000000000000000000000000006020830152604082019050919050565b6000614ade602183615542565b91507f4f6e6c79206775696c646d61737465722063616e20616363657373207468697360008301527f21000000000000000000000000000000000000000000000000000000000000006020830152604082019050919050565b6000614b44603883615542565b91507f4c65616465722063616e74206164642068696d73656c662f68657273656c662060008301527f746f20746865207465616d2061732061206d656d6265722100000000000000006020830152604082019050919050565b6000614baa603c83615542565b91507f506c61796572732073686f756c6420686176652061737369676e65642061207260008301527f6567696f6e206265666f7265206a6f696e696e672061207465616d21000000006020830152604082019050919050565b6000614c10601f83615542565b91507f506c617965722062656c6f6e677320746f20616e6f74686572207465616d21006000830152602082019050919050565b6000614c50601383615542565b91507f5465616d20646f65736e6f7420657869737421000000000000000000000000006000830152602082019050919050565b6000614c90601f83615542565b91507f54686973205465616d20494420697320616c726561647920696e2075736521006000830152602082019050919050565b6000614cd0602983615542565b91507f466f7262696464656e21204f6e6c792061646d696e206861732074686973207060008301527f726576696c6567652e00000000000000000000000000000000000000000000006020830152604082019050919050565b6000614d36603083615542565b91507f5465616d2063616e2068617665206f6e6c792033206d656d626572732028657860008301527f636c7564696e67206c65616465722921000000000000000000000000000000006020830152604082019050919050565b6000614d9c601f83615542565b91507f5468697320506c61796572204944206973206e6f7420617661696c61626c65006000830152602082019050919050565b6000614ddc602583615542565b91507f4f6e6c79206c65616465722063616e2061636365737320746869732066756e6360008301527f74696f6e210000000000000000000000000000000000000000000000000000006020830152604082019050919050565b6000614e42602883615542565b91507f4f6e6c79206c6561646572206861732061636365737320746f2074686973206660008301527f756e6374696f6e210000000000000000000000000000000000000000000000006020830152604082019050919050565b6000614ea8601583615542565b91507f506c6179657220646f65736e6f742065786973742100000000000000000000006000830152602082019050919050565b6000614ee8602983615542565b91507f4f6e6c79204775696c644d61737465722063616e20616363657373207468697360008301527f2066756e6374696f6e00000000000000000000000000000000000000000000006020830152604082019050919050565b614f4a816155c1565b82525050565b6000614f5c8284614854565b915081905092915050565b6000614f7382846148f7565b915081905092915050565b600060a082019050614f936000830188614779565b8181036020830152614fa581876148be565b9050614fb46040830186614f41565b8181036060830152614fc681856148be565b90508181036080830152614fda81846148be565b90509695505050505050565b6000602082019050614ffb60008301846147fd565b92915050565b6000602082019050818103600083015261501b81846148be565b905092915050565b6000602082019050818103600083015261503d818461481b565b905092915050565b6000606082019050818103600083015261505f818661481b565b90508181036020830152615073818561481b565b90506150826040830184614779565b949350505050565b600060608201905081810360008301526150a4818661481b565b905081810360208301526150b8818561481b565b905081810360408301526150cc8184614788565b9050949350505050565b60006101008201905081810360008301526150f1818b6148be565b90508181036020830152615105818a6148be565b9050818103604083015261511981896148be565b90506151286060830188614f41565b6151356080830187614f41565b61514260a0830186614f41565b61514f60c083018561480c565b81810360e083015261516181846148be565b90509998505050505050505050565b600061014082019050818103600083015261518b818d6148be565b905061519a602083018c614f41565b6151a7604083018b614779565b81810360608301526151b9818a6148be565b905081810360808301526151cd81896148be565b90506151dc60a0830188614f41565b6151e960c0830187614f41565b6151f660e0830186614f41565b61520461010083018561480c565b81810361012083015261521781846148be565b90509b9a5050505050505050505050565b6000602082019050818103600083015261524181614985565b9050919050565b60006020820190508181036000830152615261816149c5565b9050919050565b6000602082019050818103600083015261528181614a05565b9050919050565b600060208201905081810360008301526152a181614a6b565b9050919050565b600060208201905081810360008301526152c181614ad1565b9050919050565b600060208201905081810360008301526152e181614b37565b9050919050565b6000602082019050818103600083015261530181614b9d565b9050919050565b6000602082019050818103600083015261532181614c03565b9050919050565b6000602082019050818103600083015261534181614c43565b9050919050565b6000602082019050818103600083015261536181614c83565b9050919050565b6000602082019050818103600083015261538181614cc3565b9050919050565b600060208201905081810360008301526153a181614d29565b9050919050565b600060208201905081810360008301526153c181614d8f565b9050919050565b600060208201905081810360008301526153e181614dcf565b9050919050565b6000602082019050818103600083015261540181614e35565b9050919050565b6000602082019050818103600083015261542181614e9b565b9050919050565b6000602082019050818103600083015261544181614edb565b9050919050565b6000604051905081810181811067ffffffffffffffff8211171561546b57600080fd5b8060405250919050565b600067ffffffffffffffff82111561548c57600080fd5b601f19601f8301169050602081019050919050565b600067ffffffffffffffff8211156154b857600080fd5b601f19601f8301169050602081019050919050565b6000819050602082019050919050565b60008190508160005260206000209050919050565b600081519050919050565b600081519050919050565b600081519050919050565b6000602082019050919050565b600082825260208201905092915050565b600082825260208201905092915050565b600082825260208201905092915050565b600081905092915050565b6000615569826155a1565b9050919050565b600061557b826155a1565b9050919050565b60008115159050919050565b600081905061559c82615630565b919050565b600073ffffffffffffffffffffffffffffffffffffffff82169050919050565b6000819050919050565b60006155d68261558e565b9050919050565b82818337600083830152505050565b60005b8381101561560a5780820151818401526020810190506155ef565b83811115615619576000848401525b50505050565b6000601f19601f8301169050919050565b6005811061563a57fe5b50565b6156468161555e565b811461565157600080fd5b50565b61565d81615570565b811461566857600080fd5b50565b61567481615582565b811461567f57600080fd5b50565b6005811061568f57600080fd5b50565b61569b816155c1565b81146156a657600080fd5b5056fea365627a7a72315820f796cc7f6e48f6cc537b92996cd898a0e044b1e76c8bd57522449c828b6895496c6578706572696d656e74616cf564736f6c63430005100040",
  "source": "pragma solidity ^0.5.0;\r\npragma experimental ABIEncoderV2;\r\n\r\ncontract main{\r\n    address admin;\r\n\tenum Tier {Bronze, Silver, Gold, Diamond, Platinum}\r\n\r\n    struct GuildMaster{\r\n        address payable master;\r\n        string guild_id;\r\n        uint aadhaar;\r\n        string region_id;\r\n        string name;\r\n    }\r\n\r\n    struct Player{\r\n        string player_id;\r\n        uint aadhaar;\r\n        address payable player;\r\n        string team_id;\r\n        string region_id;\r\n        uint quest_count;\r\n        uint completed_quests_individual;\r\n        uint total_rewards;\r\n        Tier player_tier;\r\n        string name;\r\n    }\r\n\r\n    struct Team{\r\n        string team_id;\r\n        string region_id;\r\n        string leader;\r\n\t\t    uint quest_count;\r\n        uint completed_quests_team;\r\n        uint team_rewards;\r\n        Tier team_tier;\r\n        string name;\r\n    }\r\n\r\n    constructor() public payable{\r\n        admin=msg.sender;\r\n    }\r\n\r\n    mapping(string=>GuildMaster) public guildMasters;\r\n    mapping(address=>string) public guildMasterIDs;\r\n    mapping(string=>Player) public players;\r\n    mapping(address=>string) public playerIDs;\r\n    mapping(string=>Team) public teams;\r\n    mapping(string=>string[]) public teamMembers;\r\n\r\n    function string_check(string memory str1, string memory str2) pure internal returns (bool) {\r\n        return (keccak256(abi.encodePacked(str1)) == keccak256(abi.encodePacked(str2)));\r\n    }\r\n\r\n    function createGuildMaster(address payable _address,string memory _id,uint _aadhaar,string memory _region,string memory _name) public{\r\n        require(msg.sender==admin,'Forbidden! Only admin has this previlege.');\r\n        guildMasters[_region] = GuildMaster(_address,_id,_aadhaar,_region,_name);\r\n        guildMasterIDs[_address] = _region;\r\n    }\r\n\r\n    function getGuildMaster(string memory _region) public view returns (string memory,string memory,address payable){\r\n        return(guildMasters[_region].guild_id,guildMasters[_region].name,guildMasters[_region].master);\r\n    }\r\n\r\n    function membership(string memory _id) public{\r\n        string memory region = guildMasterIDs[msg.sender];\r\n        require(msg.sender==guildMasters[region].master,'Only guildmaster can access this!');\r\n        require(!string_check(players[_id].player_id,''),'Player doesnot exist!');\r\n        players[_id].region_id = guildMasters[region].region_id;\r\n    }\r\n\r\n    function createPlayer(string memory _id,uint _aadhaar,string memory _name) public {\r\n\t\trequire(string_check(players[_id].player_id,''),'This Player ID is not available');\r\n        players[_id] = Player( _id,_aadhaar,msg.sender,'','',0,0,0,Tier.Bronze,_name);\r\n        playerIDs[msg.sender] = _id;\r\n    }\r\n\r\n    function getPlayer(string memory _id) public view returns (string memory){\r\n        return players[_id].name;\r\n    }\r\n\r\n    function createTeam(string memory _tid,string memory _name) public{\r\n        string memory pid=playerIDs[msg.sender];\r\n        require(!string_check('',players[pid].region_id),'Region must be assigned before Team creation!');\r\n\t\trequire(string_check(teams[_tid].team_id,''),'This Team ID is already in use!');\r\n        string memory tid = players[pid].team_id;\r\n\t\tif(!string_check(tid,'')){\r\n\t\tif(string_check(teams[tid].leader,pid)){\r\n                if(teamMembers[tid].length>=1){\r\n                    string memory target = teamMembers[tid][0];\r\n                    removeMember(target);\r\n                    teams[tid].leader = target;\r\n                    players[target].team_id = tid;\r\n                }\r\n                else{\r\n                    delete teams[tid];\r\n                }\r\n\t\t}\r\n\t\telse{\r\n\t\t\tremoveMember(pid);\r\n\t\t}\r\n\t\t}\r\n        teams[_tid] = Team( _tid,players[pid].region_id,pid,0,0,0,Tier.Bronze,_name);\r\n        players[pid].team_id=_tid;\r\n    }\r\n\r\n    function getTeam(string memory _id) public view returns (string memory,string memory,string[] memory){\r\n        return(teams[_id].name,teams[_id].leader,teamMembers[_id]);\r\n    }\r\n\r\n    function addMember(string memory _id) public{\r\n        string memory pid = playerIDs[msg.sender];\r\n        string memory tid = players[pid].team_id;\r\n        require(string_check(pid,teams[tid].leader),'Only leader has access to this function!');\r\n\t\trequire(!string_check(players[_id].player_id,''),'Player doesnot exist!');\r\n        require(!string_check('',players[_id].region_id),'Players should have assigned a region before joining a team!');\r\n\t\trequire(!string_check(pid,_id),'Leader cant add himself/herself to the team as a member!');\r\n\t\trequire(!string_check(players[_id].team_id,players[pid].team_id),'Player is already in your team!');\r\n        require(string_check('',players[_id].team_id),'Player belongs to another team!');\r\n        require(teamMembers[tid].length<3,'Team can have only 3 members (excluding leader)!');\r\n        teamMembers[tid].push(_id);\r\n        players[_id].team_id=players[pid].team_id;\r\n    }\r\n\r\n    function removeMember(string memory _id) public returns(bool){\r\n        string memory pid = playerIDs[msg.sender];\r\n        string memory tid = players[pid].team_id;\r\n        require(!string_check(players[_id].player_id,''),'Player doesnot exist!');\r\n        require(string_check(pid,teams[tid].leader) || string_check(pid,_id) ,'Removal can be done either by leader or himself/herself');\r\n        players[_id].team_id='';\r\n        for(uint ind=0;ind<teamMembers[tid].length;ind++){\r\n            if(string_check(teamMembers[tid][ind],_id)){\r\n                delete teamMembers[tid][ind];\r\n               teamMembers[tid][ind] = teamMembers[tid][teamMembers[tid].length-1];\r\n                delete teamMembers[tid][teamMembers[tid].length-1];\r\n                teamMembers[tid].length--;\r\n                return true;\r\n            }\r\n        }\r\n        return false;\r\n    }\r\n\r\n    function dissolveTeam() public{\r\n        string memory pid = playerIDs[msg.sender];\r\n        string memory tid = players[pid].team_id;\r\n        require(!string_check(tid,''),'You dont have a team yet!');\r\n        require(string_check(pid,teams[tid].leader),'Only leader can access this function!');\r\n        for(uint itr=0;itr<teamMembers[tid].length;itr++){\r\n            players[teamMembers[tid][itr]].team_id='';\r\n        }\r\n        delete teamMembers[tid];\r\n        delete teams[tid];\r\n        players[pid].team_id='';\r\n    }\r\n\r\n\tfunction changeTier(string memory _region,string memory _id,Tier _tier,bool _isTeam) public{\r\n\t\trequire(msg.sender==guildMasters[_region].master,'Only GuildMaster can access this function');\r\n\t\tif(_isTeam){\r\n\t\t\trequire(string_check(teams[_id].team_id,_id),'Team doesnot exist!');\r\n\t\t\tteams[_id].team_tier=_tier;\r\n\t\t}\r\n\t\telse{\r\n\t\t\trequire(string_check(players[_id].player_id,_id),'Player doesnot exist!');\r\n\t\t\tplayers[_id].player_tier=_tier;\r\n\t\t}\r\n\t}\r\n\r\n\tfunction updateStats(string memory _region,string memory _id,uint _reward,bool _isTeam,bool _ishero) public{\r\n\t\trequire(msg.sender==guildMasters[_region].master,'Only GuildMaster can access this function');\r\n\t\tif(_isTeam){\r\n\t\t\trequire(string_check(teams[_id].team_id,_id),'Team doesnot exist!');\r\n\t\t\tteams[_id].quest_count+=1;\r\n\t\t\tif(_ishero){\r\n\t\t\tteams[_id].completed_quests_team+=1;\r\n\t\t\tteams[_id].team_rewards+=_reward;\r\n\t\t\t}\r\n\t\t}\r\n\t\telse{\r\n\t\t\trequire(string_check(players[_id].player_id,_id),'Player doesnot exist!');\r\n\t\t\tplayers[_id].quest_count+=1;\r\n\t\t\tif(_ishero){\r\n\t\t\tplayers[_id].completed_quests_individual+=1;\r\n\t\t\tplayers[_id].total_rewards+=_reward;\r\n\t\t\t}\r\n\t\t}\r\n\t}\r\n}\r\n\r\ncontract quest{\r\n    address payable from;\r\n    address payable guildMaster;\r\n    string[] public participants;\r\n    uint public rewards;\r\n    string public time;\r\n    string public region;\r\n\tenum Tier {Bronze, Silver, Gold, Diamond, Platinum}\r\n    Tier public reqd_tier;\r\n    string public description;\r\n    address payable[] public heroes;\r\n    mapping(string=>string) public heroProof;\r\n    mapping(string=>address payable) public players;\r\n    enum State { Posted, Live, Disapproved, Aborted, Ended }\r\n    State public state;\r\n\r\n\r\n    constructor(address payable _questCreator,address  payable _guildMaster,string memory _time,string memory _region,Tier _tier,string memory _desc) public payable{\r\n        from = _questCreator;\r\n        guildMaster = _guildMaster;\r\n        rewards = msg.value;\r\n        time = _time;\r\n        region = _region;\r\n        reqd_tier = _tier;\r\n        description = _desc;\r\n    }\r\n\r\n    function string_check(string memory str1, string memory str2) pure internal returns (bool) {\r\n        return (keccak256(abi.encodePacked(str1)) == keccak256(abi.encodePacked(str2)));\r\n    }\r\n\r\n    function addParticipant(string memory _id,string memory _region,Tier _tier) public{\r\n        require(string_check(region,_region),'This is not available in your region!');\r\n        require(state==State.Live,'Event is not live yet!');\r\n        require(from!=msg.sender,'You cannot participate on your own Quest!');\r\n        require(players[_id]==address(0),'You are already a participant');\r\n\t\trequire(reqd_tier<=_tier,'Your tier is below required one');\r\n        participants.push(_id);\r\n        players[_id] = msg.sender;\r\n    }\r\n\r\n\tfunction getParticipants() public view returns(string[] memory){\r\n\t\treturn(participants);\r\n\t}\r\n\r\n    function getHeroes() public view returns(address payable[] memory){\r\n\t\treturn(heroes);\r\n\t}\r\n\r\n    function approveQuest() public{\r\n        require(msg.sender==guildMaster,'Only GuildMaster can access it!');\r\n        state = State.Live;\r\n    }\r\n\r\n    function abortQuest() public{\r\n        require(msg.sender==from,'Only those who created this Quest can access it!');\r\n        require(participants.length==0,'This can not be aborted now!');\r\n        from.transfer(rewards*3/4);\r\n        guildMaster.transfer(rewards*1/4);\r\n        state = State.Aborted;\r\n    }\r\n\r\n    function disapproveQuest() public{\r\n        require(msg.sender==guildMaster,'Only GuildMaster can access it!');\r\n        from.transfer(rewards);\r\n        state = State.Disapproved;\r\n    }\r\n\r\n    function addHero(string memory _id,string memory _ipfs) public{\r\n        require(msg.sender==guildMaster,'Only GuildMaster can access it!');\r\n        require(state == State.Live,'Quest is not live!');\r\n        require(players[_id]!=address(0),'Player doesnt exist!');\r\n        require(string_check(heroProof[_id],''),'Already a hero!');\r\n        heroes.push(players[_id]);\r\n        heroProof[_id] = _ipfs;\r\n    }\r\n\r\n    function completeQuest() public payable{\r\n        require(msg.sender==guildMaster,'Only GuildMaster can access it!');\r\n        require(state == State.Live,'Quest is not live!');\r\n        require(heroes.length>0,'Heroes have to added!');\r\n        rewards = rewards/heroes.length;\r\n        for(uint itr=0;itr<heroes.length;itr++){\r\n            heroes[itr].transfer(rewards);\r\n        }\r\n        state = State.Ended;\r\n    }\r\n\r\n}\r\n\r\ncontract questStore{\r\n\r\n    mapping(string=>address) public questsById;\r\n    mapping(string=>string[]) public questsByRegion;\r\n\r\n    function string_check(string memory str1, string memory str2) pure internal returns (bool) {\r\n        return (keccak256(abi.encodePacked(str1)) == keccak256(abi.encodePacked(str2)));\r\n    }\r\n\r\n    function createQuest(string memory _qid,address payable _guildMaster,string memory _time,string memory _region,quest.Tier _tier,string memory _desc) public payable{\r\n\t    require(questsById[_qid]==address(0),\"Quest ID already in use\");\r\n        address Quest = address((new quest).value(msg.value)(msg.sender,_guildMaster,_time,_region,_tier,_desc));\r\n\t    questsById[_qid] = Quest;\r\n\t    questsByRegion[_region].push(_qid);\r\n\t}\r\n\r\n\tfunction clearQuest(string memory _qid,string memory _rid) public returns(bool){\r\n\t    require(questsById[_qid]!=address(0),\"Quest is unknown!\");\r\n\t    for(uint ind=0;ind<questsByRegion[_rid].length;ind++){\r\n            if(string_check(questsByRegion[_rid][ind],_qid)){\r\n                delete questsByRegion[_rid][ind];\r\n               questsByRegion[_rid][ind] = questsByRegion[_rid][questsByRegion[_rid].length-1];\r\n                delete questsByRegion[_rid][questsByRegion[_rid].length-1];\r\n                questsByRegion[_rid].length--;\r\n                return true;\r\n            }\r\n        }\r\n        return false;\r\n\t}\r\n}\r\n",
  "sourcePath": "C:/Users/tamil/Desktop/QuestEra/src/contracts/main.sol",
  "compiler": {
    "name": "solc",
    "version": "0.5.16+commit.9c3226ce.Emscripten.clang"
  },
  "schemaVersion": "3.2.3",
  "updatedAt": "2020-09-16T19:52:48.573Z",
  "networkType": "ethereum",
  "devdoc": {
    "methods": {}
  },
  "userdoc": {
    "methods": {}
  }
}