{
  "contractName": "quest",
  "abi": [
    {
      "inputs": [
        {
          "internalType": "address payable",
          "name": "_questCreator",
          "type": "address"
        },
        {
          "internalType": "address payable",
          "name": "_guildMaster",
          "type": "address"
        },
        {
          "internalType": "string",
          "name": "_time",
          "type": "string"
        },
        {
          "internalType": "string",
          "name": "_region",
          "type": "string"
        },
        {
          "internalType": "enum quest.Tier",
          "name": "_tier",
          "type": "uint8"
        },
        {
          "internalType": "string",
          "name": "_desc",
          "type": "string"
        }
      ],
      "payable": true,
      "stateMutability": "payable",
      "type": "constructor"
    },
    {
      "constant": true,
      "inputs": [],
      "name": "description",
      "outputs": [
        {
          "internalType": "string",
          "name": "",
          "type": "string"
        }
      ],
      "payable": false,
      "stateMutability": "view",
      "type": "function"
    },
    {
      "constant": true,
      "inputs": [
        {
          "internalType": "string",
          "name": "",
          "type": "string"
        }
      ],
      "name": "heroProof",
      "outputs": [
        {
          "internalType": "string",
          "name": "",
          "type": "string"
        }
      ],
      "payable": false,
      "stateMutability": "view",
      "type": "function"
    },
    {
      "constant": true,
      "inputs": [
        {
          "internalType": "uint256",
          "name": "",
          "type": "uint256"
        }
      ],
      "name": "heroes",
      "outputs": [
        {
          "internalType": "address payable",
          "name": "",
          "type": "address"
        }
      ],
      "payable": false,
      "stateMutability": "view",
      "type": "function"
    },
    {
      "constant": true,
      "inputs": [
        {
          "internalType": "uint256",
          "name": "",
          "type": "uint256"
        }
      ],
      "name": "participants",
      "outputs": [
        {
          "internalType": "string",
          "name": "",
          "type": "string"
        }
      ],
      "payable": false,
      "stateMutability": "view",
      "type": "function"
    },
    {
      "constant": true,
      "inputs": [
        {
          "internalType": "string",
          "name": "",
          "type": "string"
        }
      ],
      "name": "players",
      "outputs": [
        {
          "internalType": "address payable",
          "name": "",
          "type": "address"
        }
      ],
      "payable": false,
      "stateMutability": "view",
      "type": "function"
    },
    {
      "constant": true,
      "inputs": [],
      "name": "region",
      "outputs": [
        {
          "internalType": "string",
          "name": "",
          "type": "string"
        }
      ],
      "payable": false,
      "stateMutability": "view",
      "type": "function"
    },
    {
      "constant": true,
      "inputs": [],
      "name": "reqd_tier",
      "outputs": [
        {
          "internalType": "enum quest.Tier",
          "name": "",
          "type": "uint8"
        }
      ],
      "payable": false,
      "stateMutability": "view",
      "type": "function"
    },
    {
      "constant": true,
      "inputs": [],
      "name": "rewards",
      "outputs": [
        {
          "internalType": "uint256",
          "name": "",
          "type": "uint256"
        }
      ],
      "payable": false,
      "stateMutability": "view",
      "type": "function"
    },
    {
      "constant": true,
      "inputs": [],
      "name": "state",
      "outputs": [
        {
          "internalType": "enum quest.State",
          "name": "",
          "type": "uint8"
        }
      ],
      "payable": false,
      "stateMutability": "view",
      "type": "function"
    },
    {
      "constant": true,
      "inputs": [],
      "name": "time",
      "outputs": [
        {
          "internalType": "string",
          "name": "",
          "type": "string"
        }
      ],
      "payable": false,
      "stateMutability": "view",
      "type": "function"
    },
    {
      "constant": false,
      "inputs": [
        {
          "internalType": "string",
          "name": "_id",
          "type": "string"
        },
        {
          "internalType": "string",
          "name": "_region",
          "type": "string"
        },
        {
          "internalType": "enum quest.Tier",
          "name": "_tier",
          "type": "uint8"
        }
      ],
      "name": "addParticipant",
      "outputs": [],
      "payable": false,
      "stateMutability": "nonpayable",
      "type": "function"
    },
    {
      "constant": true,
      "inputs": [],
      "name": "getParticipants",
      "outputs": [
        {
          "internalType": "string[]",
          "name": "",
          "type": "string[]"
        }
      ],
      "payable": false,
      "stateMutability": "view",
      "type": "function"
    },
    {
      "constant": true,
      "inputs": [],
      "name": "getHeroes",
      "outputs": [
        {
          "internalType": "address payable[]",
          "name": "",
          "type": "address[]"
        }
      ],
      "payable": false,
      "stateMutability": "view",
      "type": "function"
    },
    {
      "constant": false,
      "inputs": [],
      "name": "approveQuest",
      "outputs": [],
      "payable": false,
      "stateMutability": "nonpayable",
      "type": "function"
    },
    {
      "constant": false,
      "inputs": [],
      "name": "abortQuest",
      "outputs": [],
      "payable": false,
      "stateMutability": "nonpayable",
      "type": "function"
    },
    {
      "constant": false,
      "inputs": [],
      "name": "disapproveQuest",
      "outputs": [],
      "payable": false,
      "stateMutability": "nonpayable",
      "type": "function"
    },
    {
      "constant": false,
      "inputs": [
        {
          "internalType": "string",
          "name": "_id",
          "type": "string"
        },
        {
          "internalType": "string",
          "name": "_ipfs",
          "type": "string"
        }
      ],
      "name": "addHero",
      "outputs": [],
      "payable": false,
      "stateMutability": "nonpayable",
      "type": "function"
    },
    {
      "constant": false,
      "inputs": [],
      "name": "completeQuest",
      "outputs": [],
      "payable": true,
      "stateMutability": "payable",
      "type": "function"
    }
  ],
  "bytecode": "0x60806040526040516200284538038062002845833981810160405262000029919081019062000265565b856000806101000a81548173ffffffffffffffffffffffffffffffffffffffff021916908373ffffffffffffffffffffffffffffffffffffffff16021790555084600160006101000a81548173ffffffffffffffffffffffffffffffffffffffff021916908373ffffffffffffffffffffffffffffffffffffffff160217905550346003819055508360049080519060200190620000c99291906200012c565b508260059080519060200190620000e29291906200012c565b5081600660006101000a81548160ff021916908360048111156200010257fe5b021790555080600790805190602001906200011f9291906200012c565b5050505050505062000436565b828054600181600116156101000203166002900490600052602060002090601f016020900481019282601f106200016f57805160ff1916838001178555620001a0565b82800160010185558215620001a0579182015b828111156200019f57825182559160200191906001019062000182565b5b509050620001af9190620001b3565b5090565b620001d891905b80821115620001d4576000816000905550600101620001ba565b5090565b90565b600081519050620001ec816200040b565b92915050565b600081519050620002038162000425565b92915050565b600082601f8301126200021b57600080fd5b8151620002326200022c8262000374565b62000346565b915080825260208301602083018583830111156200024f57600080fd5b6200025c838284620003d5565b50505092915050565b60008060008060008060c087890312156200027f57600080fd5b60006200028f89828a01620001db565b9650506020620002a289828a01620001db565b955050604087015167ffffffffffffffff811115620002c057600080fd5b620002ce89828a0162000209565b945050606087015167ffffffffffffffff811115620002ec57600080fd5b620002fa89828a0162000209565b93505060806200030d89828a01620001f2565b92505060a087015167ffffffffffffffff8111156200032b57600080fd5b6200033989828a0162000209565b9150509295509295509295565b6000604051905081810181811067ffffffffffffffff821117156200036a57600080fd5b8060405250919050565b600067ffffffffffffffff8211156200038c57600080fd5b601f19601f8301169050602081019050919050565b6000620003ae82620003b5565b9050919050565b600073ffffffffffffffffffffffffffffffffffffffff82169050919050565b60005b83811015620003f5578082015181840152602081019050620003d8565b8381111562000405576000848401525b50505050565b6200041681620003a1565b81146200042257600080fd5b50565b600581106200043357600080fd5b50565b6123ff80620004466000396000f3fe6080604052600436106101095760003560e01c806353b4b25a116100955780639ec5a894116100645780639ec5a89414610314578063a1925d021461033f578063a7a64ae71461037c578063a8d4a03b14610393578063c19d93fb146103d057610109565b806353b4b25a146102565780635aa68ac0146102935780637284e416146102be5780639a8d2882146102e957610109565b80632cfb8aaf116100dc5780632cfb8aaf146101a45780632f9a57e6146101cd57806335c1d349146101d7578063384e8c0b146102145780635062d68d1461022b57610109565b80631687d47f1461010e57806316ada547146101395780631b543c241461016457806325061e191461018d575b600080fd5b34801561011a57600080fd5b506101236103fb565b6040516101309190611f90565b60405180910390f35b34801561014557600080fd5b5061014e61040e565b60405161015b9190611fab565b60405180910390f35b34801561017057600080fd5b5061018b600480360361018691908101906118f8565b6104ac565b005b34801561019957600080fd5b506101a261083d565b005b3480156101b057600080fd5b506101cb60048036036101c6919081019061188c565b610a28565b005b6101d5610db7565b005b3480156101e357600080fd5b506101fe60048036036101f99190810190611977565b610fd5565b60405161020b9190611fab565b60405180910390f35b34801561022057600080fd5b5061022961108e565b005b34801561023757600080fd5b50610240611144565b60405161024d9190611fab565b60405180910390f35b34801561026257600080fd5b5061027d6004803603610278919081019061184b565b6111e2565b60405161028a9190611fab565b60405180910390f35b34801561029f57600080fd5b506102a86112a8565b6040516102b59190611f53565b60405180910390f35b3480156102ca57600080fd5b506102d3611391565b6040516102e09190611fab565b60405180910390f35b3480156102f557600080fd5b506102fe61142f565b60405161030b9190611f31565b60405180910390f35b34801561032057600080fd5b506103296114bd565b604051610336919061214d565b60405180910390f35b34801561034b57600080fd5b506103666004803603610361919081019061184b565b6114c3565b6040516103739190611f16565b60405180910390f35b34801561038857600080fd5b5061039161150c565b005b34801561039f57600080fd5b506103ba60048036036103b59190810190611977565b61162c565b6040516103c79190611f16565b60405180910390f35b3480156103dc57600080fd5b506103e5611668565b6040516103f29190611f75565b60405180910390f35b600660009054906101000a900460ff1681565b60048054600181600116156101000203166002900480601f0160208091040260200160405190810160405280929190818152602001828054600181600116156101000203166002900480156104a45780601f10610479576101008083540402835291602001916104a4565b820191906000526020600020905b81548152906001019060200180831161048757829003601f168201915b505050505081565b61055060058054600181600116156101000203166002900480601f0160208091040260200160405190810160405280929190818152602001828054600181600116156101000203166002900480156105455780601f1061051a57610100808354040283529160200191610545565b820191906000526020600020905b81548152906001019060200180831161052857829003601f168201915b50505050508361167b565b61058f576040517f08c379a00000000000000000000000000000000000000000000000000000000081526004016105869061204d565b60405180910390fd5b6001600481111561059c57fe5b600b60009054906101000a900460ff1660048111156105b757fe5b146105f7576040517f08c379a00000000000000000000000000000000000000000000000000000000081526004016105ee9061210d565b60405180910390fd5b3373ffffffffffffffffffffffffffffffffffffffff166000809054906101000a900473ffffffffffffffffffffffffffffffffffffffff1673ffffffffffffffffffffffffffffffffffffffff161415610687576040517f08c379a000000000000000000000000000000000000000000000000000000000815260040161067e9061202d565b60405180910390fd5b600073ffffffffffffffffffffffffffffffffffffffff16600a846040516106af9190611eff565b908152602001604051809103902060009054906101000a900473ffffffffffffffffffffffffffffffffffffffff1673ffffffffffffffffffffffffffffffffffffffff1614610734576040517f08c379a000000000000000000000000000000000000000000000000000000000815260040161072b90611fcd565b60405180910390fd5b80600481111561074057fe5b600660009054906101000a900460ff16600481111561075b57fe5b111561079c576040517f08c379a000000000000000000000000000000000000000000000000000000000815260040161079390611fed565b60405180910390fd5b60028390806001815401808255809150509060018203906000526020600020016000909192909190915090805190602001906107d99291906116d4565b505033600a846040516107ec9190611eff565b908152602001604051809103902060006101000a81548173ffffffffffffffffffffffffffffffffffffffff021916908373ffffffffffffffffffffffffffffffffffffffff160217905550505050565b6000809054906101000a900473ffffffffffffffffffffffffffffffffffffffff1673ffffffffffffffffffffffffffffffffffffffff163373ffffffffffffffffffffffffffffffffffffffff16146108cc576040517f08c379a00000000000000000000000000000000000000000000000000000000081526004016108c3906120cd565b60405180910390fd5b600060028054905014610914576040517f08c379a000000000000000000000000000000000000000000000000000000000815260040161090b906120ad565b60405180910390fd5b6000809054906101000a900473ffffffffffffffffffffffffffffffffffffffff1673ffffffffffffffffffffffffffffffffffffffff166108fc600460038054028161095d57fe5b049081150290604051600060405180830381858888f19350505050158015610989573d6000803e3d6000fd5b50600160009054906101000a900473ffffffffffffffffffffffffffffffffffffffff1673ffffffffffffffffffffffffffffffffffffffff166108fc6004600160035402816109d557fe5b049081150290604051600060405180830381858888f19350505050158015610a01573d6000803e3d6000fd5b506003600b60006101000a81548160ff02191690836004811115610a2157fe5b0217905550565b600160009054906101000a900473ffffffffffffffffffffffffffffffffffffffff1673ffffffffffffffffffffffffffffffffffffffff163373ffffffffffffffffffffffffffffffffffffffff1614610ab8576040517f08c379a0000000000000000000000000000000000000000000000000000000008152600401610aaf9061206d565b60405180910390fd5b60016004811115610ac557fe5b600b60009054906101000a900460ff166004811115610ae057fe5b14610b20576040517f08c379a0000000000000000000000000000000000000000000000000000000008152600401610b179061212d565b60405180910390fd5b600073ffffffffffffffffffffffffffffffffffffffff16600a83604051610b489190611eff565b908152602001604051809103902060009054906101000a900473ffffffffffffffffffffffffffffffffffffffff1673ffffffffffffffffffffffffffffffffffffffff161415610bce576040517f08c379a0000000000000000000000000000000000000000000000000000000008152600401610bc59061200d565b60405180910390fd5b610c9d600983604051610be19190611eff565b90815260200160405180910390208054600181600116156101000203166002900480601f016020809104026020016040519081016040528092919081815260200182805460018160011615610100020316600290048015610c835780601f10610c5857610100808354040283529160200191610c83565b820191906000526020600020905b815481529060010190602001808311610c6657829003601f168201915b50505050506040518060200160405280600081525061167b565b610cdc576040517f08c379a0000000000000000000000000000000000000000000000000000000008152600401610cd39061208d565b60405180910390fd5b6008600a83604051610cee9190611eff565b908152602001604051809103902060009054906101000a900473ffffffffffffffffffffffffffffffffffffffff1690806001815401808255809150509060018203906000526020600020016000909192909190916101000a81548173ffffffffffffffffffffffffffffffffffffffff021916908373ffffffffffffffffffffffffffffffffffffffff1602179055505080600983604051610d919190611eff565b90815260200160405180910390209080519060200190610db29291906116d4565b505050565b600160009054906101000a900473ffffffffffffffffffffffffffffffffffffffff1673ffffffffffffffffffffffffffffffffffffffff163373ffffffffffffffffffffffffffffffffffffffff1614610e47576040517f08c379a0000000000000000000000000000000000000000000000000000000008152600401610e3e9061206d565b60405180910390fd5b60016004811115610e5457fe5b600b60009054906101000a900460ff166004811115610e6f57fe5b14610eaf576040517f08c379a0000000000000000000000000000000000000000000000000000000008152600401610ea69061212d565b60405180910390fd5b600060088054905011610ef7576040517f08c379a0000000000000000000000000000000000000000000000000000000008152600401610eee906120ed565b60405180910390fd5b60088054905060035481610f0757fe5b0460038190555060008090505b600880549050811015610fae5760088181548110610f2e57fe5b9060005260206000200160009054906101000a900473ffffffffffffffffffffffffffffffffffffffff1673ffffffffffffffffffffffffffffffffffffffff166108fc6003549081150290604051600060405180830381858888f19350505050158015610fa0573d6000803e3d6000fd5b508080600101915050610f14565b506004600b60006101000a81548160ff02191690836004811115610fce57fe5b0217905550565b60028181548110610fe257fe5b906000526020600020016000915090508054600181600116156101000203166002900480601f0160208091040260200160405190810160405280929190818152602001828054600181600116156101000203166002900480156110865780601f1061105b57610100808354040283529160200191611086565b820191906000526020600020905b81548152906001019060200180831161106957829003601f168201915b505050505081565b600160009054906101000a900473ffffffffffffffffffffffffffffffffffffffff1673ffffffffffffffffffffffffffffffffffffffff163373ffffffffffffffffffffffffffffffffffffffff161461111e576040517f08c379a00000000000000000000000000000000000000000000000000000000081526004016111159061206d565b60405180910390fd5b6001600b60006101000a81548160ff0219169083600481111561113d57fe5b0217905550565b60058054600181600116156101000203166002900480601f0160208091040260200160405190810160405280929190818152602001828054600181600116156101000203166002900480156111da5780601f106111af576101008083540402835291602001916111da565b820191906000526020600020905b8154815290600101906020018083116111bd57829003601f168201915b505050505081565b6009818051602081018201805184825260208301602085012081835280955050505050506000915090508054600181600116156101000203166002900480601f0160208091040260200160405190810160405280929190818152602001828054600181600116156101000203166002900480156112a05780601f10611275576101008083540402835291602001916112a0565b820191906000526020600020905b81548152906001019060200180831161128357829003601f168201915b505050505081565b60606002805480602002602001604051908101604052809291908181526020016000905b82821015611388578382906000526020600020018054600181600116156101000203166002900480601f0160208091040260200160405190810160405280929190818152602001828054600181600116156101000203166002900480156113745780601f1061134957610100808354040283529160200191611374565b820191906000526020600020905b81548152906001019060200180831161135757829003601f168201915b5050505050815260200190600101906112cc565b50505050905090565b60078054600181600116156101000203166002900480601f0160208091040260200160405190810160405280929190818152602001828054600181600116156101000203166002900480156114275780601f106113fc57610100808354040283529160200191611427565b820191906000526020600020905b81548152906001019060200180831161140a57829003601f168201915b505050505081565b606060088054806020026020016040519081016040528092919081815260200182805480156114b357602002820191906000526020600020905b8160009054906101000a900473ffffffffffffffffffffffffffffffffffffffff1673ffffffffffffffffffffffffffffffffffffffff1681526020019060010190808311611469575b5050505050905090565b60035481565b600a818051602081018201805184825260208301602085012081835280955050505050506000915054906101000a900473ffffffffffffffffffffffffffffffffffffffff1681565b600160009054906101000a900473ffffffffffffffffffffffffffffffffffffffff1673ffffffffffffffffffffffffffffffffffffffff163373ffffffffffffffffffffffffffffffffffffffff161461159c576040517f08c379a00000000000000000000000000000000000000000000000000000000081526004016115939061206d565b60405180910390fd5b6000809054906101000a900473ffffffffffffffffffffffffffffffffffffffff1673ffffffffffffffffffffffffffffffffffffffff166108fc6003549081150290604051600060405180830381858888f19350505050158015611605573d6000803e3d6000fd5b506002600b60006101000a81548160ff0219169083600481111561162557fe5b0217905550565b6008818154811061163957fe5b906000526020600020016000915054906101000a900473ffffffffffffffffffffffffffffffffffffffff1681565b600b60009054906101000a900460ff1681565b60008160405160200161168e9190611eff565b60405160208183030381529060405280519060200120836040516020016116b59190611eff565b6040516020818303038152906040528051906020012014905092915050565b828054600181600116156101000203166002900490600052602060002090601f016020900481019282601f1061171557805160ff1916838001178555611743565b82800160010185558215611743579182015b82811115611742578251825591602001919060010190611727565b5b5090506117509190611754565b5090565b61177691905b8082111561177257600081600090555060010161175a565b5090565b90565b60008135905061178881612395565b92915050565b600082601f83011261179f57600080fd5b81356117b26117ad82612195565b612168565b915080825260208301602083018583830111156117ce57600080fd5b6117d9838284612328565b50505092915050565b600082601f8301126117f357600080fd5b8135611806611801826121c1565b612168565b9150808252602083016020830185838301111561182257600080fd5b61182d838284612328565b50505092915050565b600081359050611845816123a5565b92915050565b60006020828403121561185d57600080fd5b600082013567ffffffffffffffff81111561187757600080fd5b6118838482850161178e565b91505092915050565b6000806040838503121561189f57600080fd5b600083013567ffffffffffffffff8111156118b957600080fd5b6118c5858286016117e2565b925050602083013567ffffffffffffffff8111156118e257600080fd5b6118ee858286016117e2565b9150509250929050565b60008060006060848603121561190d57600080fd5b600084013567ffffffffffffffff81111561192757600080fd5b611933868287016117e2565b935050602084013567ffffffffffffffff81111561195057600080fd5b61195c868287016117e2565b925050604061196d86828701611779565b9150509250925092565b60006020828403121561198957600080fd5b600061199784828501611836565b91505092915050565b60006119ac83836119cc565b60208301905092915050565b60006119c48383611b0c565b905092915050565b6119d5816122a2565b82525050565b6119e4816122a2565b82525050565b60006119f58261220d565b6119ff8185612253565b9350611a0a836121ed565b8060005b83811015611a3b578151611a2288826119a0565b9750611a2d83612239565b925050600181019050611a0e565b5085935050505092915050565b6000611a5382612218565b611a5d8185612264565b935083602082028501611a6f856121fd565b8060005b85811015611aab5784840389528151611a8c85826119b8565b9450611a9783612246565b925060208a01995050600181019050611a73565b50829750879550505050505092915050565b611ac681612304565b82525050565b611ad581612316565b82525050565b6000611ae68261222e565b611af08185612297565b9350611b00818560208601612337565b80840191505092915050565b6000611b1782612223565b611b218185612275565b9350611b31818560208601612337565b611b3a8161236a565b840191505092915050565b6000611b5082612223565b611b5a8185612286565b9350611b6a818560208601612337565b611b738161236a565b840191505092915050565b6000611b8b601d83612286565b91507f596f752061726520616c72656164792061207061727469636970616e740000006000830152602082019050919050565b6000611bcb601f83612286565b91507f596f757220746965722069732062656c6f77207265717569726564206f6e65006000830152602082019050919050565b6000611c0b601483612286565b91507f506c6179657220646f65736e74206578697374210000000000000000000000006000830152602082019050919050565b6000611c4b602983612286565b91507f596f752063616e6e6f74207061727469636970617465206f6e20796f7572206f60008301527f776e2051756573742100000000000000000000000000000000000000000000006020830152604082019050919050565b6000611cb1602583612286565b91507f54686973206973206e6f7420617661696c61626c6520696e20796f757220726560008301527f67696f6e210000000000000000000000000000000000000000000000000000006020830152604082019050919050565b6000611d17601f83612286565b91507f4f6e6c79204775696c644d61737465722063616e2061636365737320697421006000830152602082019050919050565b6000611d57600f83612286565b91507f416c72656164792061206865726f2100000000000000000000000000000000006000830152602082019050919050565b6000611d97601c83612286565b91507f546869732063616e206e6f742062652061626f72746564206e6f7721000000006000830152602082019050919050565b6000611dd7603083612286565b91507f4f6e6c792074686f73652077686f20637265617465642074686973205175657360008301527f742063616e2061636365737320697421000000000000000000000000000000006020830152604082019050919050565b6000611e3d601583612286565b91507f4865726f6573206861766520746f2061646465642100000000000000000000006000830152602082019050919050565b6000611e7d601683612286565b91507f4576656e74206973206e6f74206c6976652079657421000000000000000000006000830152602082019050919050565b6000611ebd601283612286565b91507f5175657374206973206e6f74206c6976652100000000000000000000000000006000830152602082019050919050565b611ef9816122fa565b82525050565b6000611f0b8284611adb565b915081905092915050565b6000602082019050611f2b60008301846119db565b92915050565b60006020820190508181036000830152611f4b81846119ea565b905092915050565b60006020820190508181036000830152611f6d8184611a48565b905092915050565b6000602082019050611f8a6000830184611abd565b92915050565b6000602082019050611fa56000830184611acc565b92915050565b60006020820190508181036000830152611fc58184611b45565b905092915050565b60006020820190508181036000830152611fe681611b7e565b9050919050565b6000602082019050818103600083015261200681611bbe565b9050919050565b6000602082019050818103600083015261202681611bfe565b9050919050565b6000602082019050818103600083015261204681611c3e565b9050919050565b6000602082019050818103600083015261206681611ca4565b9050919050565b6000602082019050818103600083015261208681611d0a565b9050919050565b600060208201905081810360008301526120a681611d4a565b9050919050565b600060208201905081810360008301526120c681611d8a565b9050919050565b600060208201905081810360008301526120e681611dca565b9050919050565b6000602082019050818103600083015261210681611e30565b9050919050565b6000602082019050818103600083015261212681611e70565b9050919050565b6000602082019050818103600083015261214681611eb0565b9050919050565b60006020820190506121626000830184611ef0565b92915050565b6000604051905081810181811067ffffffffffffffff8211171561218b57600080fd5b8060405250919050565b600067ffffffffffffffff8211156121ac57600080fd5b601f19601f8301169050602081019050919050565b600067ffffffffffffffff8211156121d857600080fd5b601f19601f8301169050602081019050919050565b6000819050602082019050919050565b6000819050602082019050919050565b600081519050919050565b600081519050919050565b600081519050919050565b600081519050919050565b6000602082019050919050565b6000602082019050919050565b600082825260208201905092915050565b600082825260208201905092915050565b600082825260208201905092915050565b600082825260208201905092915050565b600081905092915050565b60006122ad826122da565b9050919050565b60008190506122c28261237b565b919050565b60008190506122d582612388565b919050565b600073ffffffffffffffffffffffffffffffffffffffff82169050919050565b6000819050919050565b600061230f826122b4565b9050919050565b6000612321826122c7565b9050919050565b82818337600083830152505050565b60005b8381101561235557808201518184015260208101905061233a565b83811115612364576000848401525b50505050565b6000601f19601f8301169050919050565b6005811061238557fe5b50565b6005811061239257fe5b50565b600581106123a257600080fd5b50565b6123ae816122fa565b81146123b957600080fd5b5056fea365627a7a7231582096a52f745580a08139794c7be73712fae3a954f6686bb3a55ac9fee32025eb076c6578706572696d656e74616cf564736f6c63430005100040",
  "source": "pragma solidity ^0.5.0;\r\npragma experimental ABIEncoderV2;\r\n\r\ncontract main{\r\n    address admin;\r\n\tenum Tier {Bronze, Silver, Gold, Diamond, Platinum}\r\n\r\n    struct GuildMaster{\r\n        address payable master;\r\n        string guild_id;\r\n        uint aadhaar;\r\n        string region_id;\r\n        string name;\r\n    }\r\n\r\n    struct Player{\r\n        string player_id;\r\n        uint aadhaar;\r\n        address payable player;\r\n        string team_id;\r\n        string region_id;\r\n        uint quest_count;\r\n        uint completed_quests_individual;\r\n        uint total_rewards;\r\n        Tier player_tier;\r\n        string name;\r\n    }\r\n\r\n    struct Team{\r\n        string team_id;\r\n        string region_id;\r\n        string leader;\r\n\t\t    uint quest_count;\r\n        uint completed_quests_team;\r\n        uint team_rewards;\r\n        Tier team_tier;\r\n        string name;\r\n    }\r\n\r\n    constructor() public payable{\r\n        admin=msg.sender;\r\n    }\r\n\r\n    mapping(string=>GuildMaster) public guildMasters;\r\n    mapping(address=>string) public guildMasterIDs;\r\n    mapping(string=>Player) public players;\r\n    mapping(address=>string) public playerIDs;\r\n    mapping(string=>Team) public teams;\r\n    mapping(string=>string[]) public teamMembers;\r\n\r\n    function string_check(string memory str1, string memory str2) pure internal returns (bool) {\r\n        return (keccak256(abi.encodePacked(str1)) == keccak256(abi.encodePacked(str2)));\r\n    }\r\n\r\n    function createGuildMaster(address payable _address,string memory _id,uint _aadhaar,string memory _region,string memory _name) public{\r\n        require(msg.sender==admin,'Forbidden! Only admin has this previlege.');\r\n        guildMasters[_region] = GuildMaster(_address,_id,_aadhaar,_region,_name);\r\n        guildMasterIDs[_address] = _region;\r\n    }\r\n\r\n    function getGuildMaster(string memory _region) public view returns (string memory,string memory,address payable){\r\n        return(guildMasters[_region].guild_id,guildMasters[_region].name,guildMasters[_region].master);\r\n    }\r\n\r\n    function membership(string memory _id) public{\r\n        string memory region = guildMasterIDs[msg.sender];\r\n        require(msg.sender==guildMasters[region].master,'Only guildmaster can access this!');\r\n        require(!string_check(players[_id].player_id,''),'Player doesnot exist!');\r\n        players[_id].region_id = guildMasters[region].region_id;\r\n    }\r\n\r\n    function createPlayer(string memory _id,uint _aadhaar,string memory _name) public {\r\n\t\trequire(string_check(players[_id].player_id,''),'This Player ID is not available');\r\n        players[_id] = Player( _id,_aadhaar,msg.sender,'','',0,0,0,Tier.Bronze,_name);\r\n        playerIDs[msg.sender] = _id;\r\n    }\r\n\r\n    function getPlayer(string memory _id) public view returns (string memory){\r\n        return players[_id].name;\r\n    }\r\n\r\n    function createTeam(string memory _tid,string memory _name) public{\r\n        string memory pid=playerIDs[msg.sender];\r\n        require(!string_check('',players[pid].region_id),'Region must be assigned before Team creation!');\r\n\t\trequire(string_check(teams[_tid].team_id,''),'This Team ID is already in use!');\r\n        string memory tid = players[pid].team_id;\r\n\t\tif(!string_check(tid,'')){\r\n\t\tif(string_check(teams[tid].leader,pid)){\r\n                if(teamMembers[tid].length>=1){\r\n                    string memory target = teamMembers[tid][0];\r\n                    removeMember(target);\r\n                    teams[tid].leader = target;\r\n                    players[target].team_id = tid;\r\n                }\r\n                else{\r\n                    delete teams[tid];\r\n                }\r\n\t\t}\r\n\t\telse{\r\n\t\t\tremoveMember(pid);\r\n\t\t}\r\n\t\t}\r\n        teams[_tid] = Team( _tid,players[pid].region_id,pid,0,0,0,Tier.Bronze,_name);\r\n        players[pid].team_id=_tid;\r\n    }\r\n\r\n    function getTeam(string memory _id) public view returns (string memory,string memory,string[] memory){\r\n        return(teams[_id].name,teams[_id].leader,teamMembers[_id]);\r\n    }\r\n\r\n    function addMember(string memory _id) public{\r\n        string memory pid = playerIDs[msg.sender];\r\n        string memory tid = players[pid].team_id;\r\n        require(string_check(pid,teams[tid].leader),'Only leader has access to this function!');\r\n\t\trequire(!string_check(players[_id].player_id,''),'Player doesnot exist!');\r\n        require(!string_check('',players[_id].region_id),'Players should have assigned a region before joining a team!');\r\n\t\trequire(!string_check(pid,_id),'Leader cant add himself/herself to the team as a member!');\r\n\t\trequire(!string_check(players[_id].team_id,players[pid].team_id),'Player is already in your team!');\r\n        require(string_check('',players[_id].team_id),'Player belongs to another team!');\r\n        require(teamMembers[tid].length<3,'Team can have only 3 members (excluding leader)!');\r\n        teamMembers[tid].push(_id);\r\n        players[_id].team_id=players[pid].team_id;\r\n    }\r\n\r\n    function removeMember(string memory _id) public returns(bool){\r\n        string memory pid = playerIDs[msg.sender];\r\n        string memory tid = players[pid].team_id;\r\n        require(!string_check(players[_id].player_id,''),'Player doesnot exist!');\r\n        require(string_check(pid,teams[tid].leader) || string_check(pid,_id) ,'Removal can be done either by leader or himself/herself');\r\n        players[_id].team_id='';\r\n        for(uint ind=0;ind<teamMembers[tid].length;ind++){\r\n            if(string_check(teamMembers[tid][ind],_id)){\r\n                delete teamMembers[tid][ind];\r\n               teamMembers[tid][ind] = teamMembers[tid][teamMembers[tid].length-1];\r\n                delete teamMembers[tid][teamMembers[tid].length-1];\r\n                teamMembers[tid].length--;\r\n                return true;\r\n            }\r\n        }\r\n        return false;\r\n    }\r\n\r\n    function dissolveTeam() public{\r\n        string memory pid = playerIDs[msg.sender];\r\n        string memory tid = players[pid].team_id;\r\n        require(!string_check(tid,''),'You dont have a team yet!');\r\n        require(string_check(pid,teams[tid].leader),'Only leader can access this function!');\r\n        for(uint itr=0;itr<teamMembers[tid].length;itr++){\r\n            players[teamMembers[tid][itr]].team_id='';\r\n        }\r\n        delete teamMembers[tid];\r\n        delete teams[tid];\r\n        players[pid].team_id='';\r\n    }\r\n\r\n\tfunction changeTier(string memory _region,string memory _id,Tier _tier,bool _isTeam) public{\r\n\t\trequire(msg.sender==guildMasters[_region].master,'Only GuildMaster can access this function');\r\n\t\tif(_isTeam){\r\n\t\t\trequire(string_check(teams[_id].team_id,_id),'Team doesnot exist!');\r\n\t\t\tteams[_id].team_tier=_tier;\r\n\t\t}\r\n\t\telse{\r\n\t\t\trequire(string_check(players[_id].player_id,_id),'Player doesnot exist!');\r\n\t\t\tplayers[_id].player_tier=_tier;\r\n\t\t}\r\n\t}\r\n\r\n\tfunction updateStats(string memory _region,string memory _id,uint _reward,bool _isTeam,bool _ishero) public{\r\n\t\trequire(msg.sender==guildMasters[_region].master,'Only GuildMaster can access this function');\r\n\t\tif(_isTeam){\r\n\t\t\trequire(string_check(teams[_id].team_id,_id),'Team doesnot exist!');\r\n\t\t\tteams[_id].quest_count+=1;\r\n\t\t\tif(_ishero){\r\n\t\t\tteams[_id].completed_quests_team+=1;\r\n\t\t\tteams[_id].team_rewards+=_reward;\r\n\t\t\t}\r\n\t\t}\r\n\t\telse{\r\n\t\t\trequire(string_check(players[_id].player_id,_id),'Player doesnot exist!');\r\n\t\t\tplayers[_id].quest_count+=1;\r\n\t\t\tif(_ishero){\r\n\t\t\tplayers[_id].completed_quests_individual+=1;\r\n\t\t\tplayers[_id].total_rewards+=_reward;\r\n\t\t\t}\r\n\t\t}\r\n\t}\r\n}\r\n\r\ncontract quest{\r\n    address payable from;\r\n    address payable guildMaster;\r\n    string[] public participants;\r\n    uint public rewards;\r\n    string public time;\r\n    string public region;\r\n\tenum Tier {Bronze, Silver, Gold, Diamond, Platinum}\r\n    Tier public reqd_tier;\r\n    string public description;\r\n    address payable[] public heroes;\r\n    mapping(string=>string) public heroProof;\r\n    mapping(string=>address payable) public players;\r\n    enum State { Posted, Live, Disapproved, Aborted, Ended }\r\n    State public state;\r\n\r\n\r\n    constructor(address payable _questCreator,address  payable _guildMaster,string memory _time,string memory _region,Tier _tier,string memory _desc) public payable{\r\n        from = _questCreator;\r\n        guildMaster = _guildMaster;\r\n        rewards = msg.value;\r\n        time = _time;\r\n        region = _region;\r\n        reqd_tier = _tier;\r\n        description = _desc;\r\n    }\r\n\r\n    function string_check(string memory str1, string memory str2) pure internal returns (bool) {\r\n        return (keccak256(abi.encodePacked(str1)) == keccak256(abi.encodePacked(str2)));\r\n    }\r\n\r\n    function addParticipant(string memory _id,string memory _region,Tier _tier) public{\r\n        require(string_check(region,_region),'This is not available in your region!');\r\n        require(state==State.Live,'Event is not live yet!');\r\n        require(from!=msg.sender,'You cannot participate on your own Quest!');\r\n        require(players[_id]==address(0),'You are already a participant');\r\n\t\trequire(reqd_tier<=_tier,'Your tier is below required one');\r\n        participants.push(_id);\r\n        players[_id] = msg.sender;\r\n    }\r\n\r\n\tfunction getParticipants() public view returns(string[] memory){\r\n\t\treturn(participants);\r\n\t}\r\n\r\n    function getHeroes() public view returns(address payable[] memory){\r\n\t\treturn(heroes);\r\n\t}\r\n\r\n    function approveQuest() public{\r\n        require(msg.sender==guildMaster,'Only GuildMaster can access it!');\r\n        state = State.Live;\r\n    }\r\n\r\n    function abortQuest() public{\r\n        require(msg.sender==from,'Only those who created this Quest can access it!');\r\n        require(participants.length==0,'This can not be aborted now!');\r\n        from.transfer(rewards*3/4);\r\n        guildMaster.transfer(rewards*1/4);\r\n        state = State.Aborted;\r\n    }\r\n\r\n    function disapproveQuest() public{\r\n        require(msg.sender==guildMaster,'Only GuildMaster can access it!');\r\n        from.transfer(rewards);\r\n        state = State.Disapproved;\r\n    }\r\n\r\n    function addHero(string memory _id,string memory _ipfs) public{\r\n        require(msg.sender==guildMaster,'Only GuildMaster can access it!');\r\n        require(state == State.Live,'Quest is not live!');\r\n        require(players[_id]!=address(0),'Player doesnt exist!');\r\n        require(string_check(heroProof[_id],''),'Already a hero!');\r\n        heroes.push(players[_id]);\r\n        heroProof[_id] = _ipfs;\r\n    }\r\n\r\n    function completeQuest() public payable{\r\n        require(msg.sender==guildMaster,'Only GuildMaster can access it!');\r\n        require(state == State.Live,'Quest is not live!');\r\n        require(heroes.length>0,'Heroes have to added!');\r\n        rewards = rewards/heroes.length;\r\n        for(uint itr=0;itr<heroes.length;itr++){\r\n            heroes[itr].transfer(rewards);\r\n        }\r\n        state = State.Ended;\r\n    }\r\n\r\n}\r\n\r\ncontract questStore{\r\n\r\n    mapping(string=>address) public questsById;\r\n    mapping(string=>string[]) public questsByRegion;\r\n\r\n    function string_check(string memory str1, string memory str2) pure internal returns (bool) {\r\n        return (keccak256(abi.encodePacked(str1)) == keccak256(abi.encodePacked(str2)));\r\n    }\r\n\r\n    function createQuest(string memory _qid,address payable _guildMaster,string memory _time,string memory _region,quest.Tier _tier,string memory _desc) public payable{\r\n\t    require(questsById[_qid]==address(0),\"Quest ID already in use\");\r\n        address Quest = address((new quest).value(msg.value)(msg.sender,_guildMaster,_time,_region,_tier,_desc));\r\n\t    questsById[_qid] = Quest;\r\n\t    questsByRegion[_region].push(_qid);\r\n\t}\r\n\r\n\tfunction clearQuest(string memory _qid,string memory _rid) public returns(bool){\r\n\t    require(questsById[_qid]!=address(0),\"Quest is unknown!\");\r\n\t    for(uint ind=0;ind<questsByRegion[_rid].length;ind++){\r\n            if(string_check(questsByRegion[_rid][ind],_qid)){\r\n                delete questsByRegion[_rid][ind];\r\n               questsByRegion[_rid][ind] = questsByRegion[_rid][questsByRegion[_rid].length-1];\r\n                delete questsByRegion[_rid][questsByRegion[_rid].length-1];\r\n                questsByRegion[_rid].length--;\r\n                return true;\r\n            }\r\n        }\r\n        return false;\r\n\t}\r\n}\r\n",
  "sourcePath": "C:/Users/tamil/Desktop/QuestEra/src/contracts/main.sol",
  "compiler": {
    "name": "solc",
    "version": "0.5.16+commit.9c3226ce.Emscripten.clang"
  },
  "schemaVersion": "3.2.3",
  "updatedAt": "2020-09-16T19:52:48.623Z",
  "networkType": "ethereum",
  "devdoc": {
    "methods": {}
  },
  "userdoc": {
    "methods": {}
  }
}